{
  "_format": "hh-sol-artifact-1",
  "contractName": "Product",
  "sourceName": "contracts/Product.sol",
  "abi": [
    {
      "inputs": [
        {
          "internalType": "string",
          "name": "_name",
          "type": "string"
        },
        {
          "internalType": "string",
          "name": "_baseUri",
          "type": "string"
        }
      ],
      "stateMutability": "nonpayable",
      "type": "constructor"
    },
    {
      "anonymous": false,
      "inputs": [
        {
          "indexed": true,
          "internalType": "address",
          "name": "account",
          "type": "address"
        },
        {
          "indexed": true,
          "internalType": "address",
          "name": "operator",
          "type": "address"
        },
        {
          "indexed": false,
          "internalType": "bool",
          "name": "approved",
          "type": "bool"
        }
      ],
      "name": "ApprovalForAll",
      "type": "event"
    },
    {
      "anonymous": false,
      "inputs": [
        {
          "indexed": true,
          "internalType": "address",
          "name": "previousOwner",
          "type": "address"
        },
        {
          "indexed": true,
          "internalType": "address",
          "name": "newOwner",
          "type": "address"
        }
      ],
      "name": "OwnershipTransferred",
      "type": "event"
    },
    {
      "anonymous": false,
      "inputs": [
        {
          "indexed": true,
          "internalType": "uint256",
          "name": "tokenId",
          "type": "uint256"
        },
        {
          "indexed": false,
          "internalType": "string",
          "name": "metadataHash",
          "type": "string"
        },
        {
          "indexed": false,
          "internalType": "address",
          "name": "seller",
          "type": "address"
        },
        {
          "indexed": false,
          "internalType": "string",
          "name": "slug",
          "type": "string"
        },
        {
          "indexed": false,
          "internalType": "uint256",
          "name": "price",
          "type": "uint256"
        },
        {
          "indexed": false,
          "internalType": "uint256",
          "name": "amount",
          "type": "uint256"
        }
      ],
      "name": "ProductItemCreated",
      "type": "event"
    },
    {
      "anonymous": false,
      "inputs": [
        {
          "indexed": true,
          "internalType": "address",
          "name": "operator",
          "type": "address"
        },
        {
          "indexed": true,
          "internalType": "address",
          "name": "from",
          "type": "address"
        },
        {
          "indexed": true,
          "internalType": "address",
          "name": "to",
          "type": "address"
        },
        {
          "indexed": false,
          "internalType": "uint256[]",
          "name": "ids",
          "type": "uint256[]"
        },
        {
          "indexed": false,
          "internalType": "uint256[]",
          "name": "values",
          "type": "uint256[]"
        }
      ],
      "name": "TransferBatch",
      "type": "event"
    },
    {
      "anonymous": false,
      "inputs": [
        {
          "indexed": true,
          "internalType": "address",
          "name": "operator",
          "type": "address"
        },
        {
          "indexed": true,
          "internalType": "address",
          "name": "from",
          "type": "address"
        },
        {
          "indexed": true,
          "internalType": "address",
          "name": "to",
          "type": "address"
        },
        {
          "indexed": false,
          "internalType": "uint256",
          "name": "id",
          "type": "uint256"
        },
        {
          "indexed": false,
          "internalType": "uint256",
          "name": "value",
          "type": "uint256"
        }
      ],
      "name": "TransferSingle",
      "type": "event"
    },
    {
      "anonymous": false,
      "inputs": [
        {
          "indexed": false,
          "internalType": "string",
          "name": "value",
          "type": "string"
        },
        {
          "indexed": true,
          "internalType": "uint256",
          "name": "id",
          "type": "uint256"
        }
      ],
      "name": "URI",
      "type": "event"
    },
    {
      "inputs": [
        {
          "internalType": "address",
          "name": "account",
          "type": "address"
        },
        {
          "internalType": "uint256",
          "name": "id",
          "type": "uint256"
        }
      ],
      "name": "balanceOf",
      "outputs": [
        {
          "internalType": "uint256",
          "name": "",
          "type": "uint256"
        }
      ],
      "stateMutability": "view",
      "type": "function"
    },
    {
      "inputs": [
        {
          "internalType": "address[]",
          "name": "accounts",
          "type": "address[]"
        },
        {
          "internalType": "uint256[]",
          "name": "ids",
          "type": "uint256[]"
        }
      ],
      "name": "balanceOfBatch",
      "outputs": [
        {
          "internalType": "uint256[]",
          "name": "",
          "type": "uint256[]"
        }
      ],
      "stateMutability": "view",
      "type": "function"
    },
    {
      "inputs": [],
      "name": "baseUri",
      "outputs": [
        {
          "internalType": "string",
          "name": "",
          "type": "string"
        }
      ],
      "stateMutability": "view",
      "type": "function"
    },
    {
      "inputs": [
        {
          "internalType": "uint256",
          "name": "tokenId",
          "type": "uint256"
        },
        {
          "internalType": "uint256",
          "name": "quantity",
          "type": "uint256"
        }
      ],
      "name": "buy",
      "outputs": [],
      "stateMutability": "payable",
      "type": "function"
    },
    {
      "inputs": [
        {
          "internalType": "string",
          "name": "metadataHash",
          "type": "string"
        },
        {
          "internalType": "string",
          "name": "slug",
          "type": "string"
        },
        {
          "internalType": "uint256",
          "name": "price",
          "type": "uint256"
        },
        {
          "internalType": "uint256",
          "name": "amount",
          "type": "uint256"
        }
      ],
      "name": "createProduct",
      "outputs": [
        {
          "internalType": "uint256",
          "name": "",
          "type": "uint256"
        }
      ],
      "stateMutability": "nonpayable",
      "type": "function"
    },
    {
      "inputs": [
        {
          "internalType": "uint256",
          "name": "_tokenId",
          "type": "uint256"
        }
      ],
      "name": "fetchProduct",
      "outputs": [
        {
          "components": [
            {
              "internalType": "uint256",
              "name": "tokenId",
              "type": "uint256"
            },
            {
              "internalType": "string",
              "name": "metadataHash",
              "type": "string"
            },
            {
              "internalType": "address payable",
              "name": "seller",
              "type": "address"
            },
            {
              "internalType": "string",
              "name": "slug",
              "type": "string"
            },
            {
              "internalType": "uint256",
              "name": "price",
              "type": "uint256"
            },
            {
              "internalType": "uint256",
              "name": "amount",
              "type": "uint256"
            },
            {
              "internalType": "uint256",
              "name": "sold",
              "type": "uint256"
            }
          ],
          "internalType": "struct Product.ProductItem",
          "name": "",
          "type": "tuple"
        }
      ],
      "stateMutability": "view",
      "type": "function"
    },
    {
      "inputs": [
        {
          "internalType": "address",
          "name": "_seller",
          "type": "address"
        },
        {
          "internalType": "string",
          "name": "_slug",
          "type": "string"
        }
      ],
      "name": "fetchProductBySlug",
      "outputs": [
        {
          "components": [
            {
              "internalType": "uint256",
              "name": "tokenId",
              "type": "uint256"
            },
            {
              "internalType": "string",
              "name": "metadataHash",
              "type": "string"
            },
            {
              "internalType": "address payable",
              "name": "seller",
              "type": "address"
            },
            {
              "internalType": "string",
              "name": "slug",
              "type": "string"
            },
            {
              "internalType": "uint256",
              "name": "price",
              "type": "uint256"
            },
            {
              "internalType": "uint256",
              "name": "amount",
              "type": "uint256"
            },
            {
              "internalType": "uint256",
              "name": "sold",
              "type": "uint256"
            }
          ],
          "internalType": "struct Product.ProductItem",
          "name": "",
          "type": "tuple"
        }
      ],
      "stateMutability": "view",
      "type": "function"
    },
    {
      "inputs": [],
      "name": "fetchProducts",
      "outputs": [
        {
          "components": [
            {
              "internalType": "uint256",
              "name": "tokenId",
              "type": "uint256"
            },
            {
              "internalType": "string",
              "name": "metadataHash",
              "type": "string"
            },
            {
              "internalType": "address payable",
              "name": "seller",
              "type": "address"
            },
            {
              "internalType": "string",
              "name": "slug",
              "type": "string"
            },
            {
              "internalType": "uint256",
              "name": "price",
              "type": "uint256"
            },
            {
              "internalType": "uint256",
              "name": "amount",
              "type": "uint256"
            },
            {
              "internalType": "uint256",
              "name": "sold",
              "type": "uint256"
            }
          ],
          "internalType": "struct Product.ProductItem[]",
          "name": "",
          "type": "tuple[]"
        }
      ],
      "stateMutability": "view",
      "type": "function"
    },
    {
      "inputs": [
        {
          "internalType": "address",
          "name": "_seller",
          "type": "address"
        }
      ],
      "name": "fetchSellerProducts",
      "outputs": [
        {
          "components": [
            {
              "internalType": "uint256",
              "name": "tokenId",
              "type": "uint256"
            },
            {
              "internalType": "string",
              "name": "metadataHash",
              "type": "string"
            },
            {
              "internalType": "address payable",
              "name": "seller",
              "type": "address"
            },
            {
              "internalType": "string",
              "name": "slug",
              "type": "string"
            },
            {
              "internalType": "uint256",
              "name": "price",
              "type": "uint256"
            },
            {
              "internalType": "uint256",
              "name": "amount",
              "type": "uint256"
            },
            {
              "internalType": "uint256",
              "name": "sold",
              "type": "uint256"
            }
          ],
          "internalType": "struct Product.ProductItem[]",
          "name": "",
          "type": "tuple[]"
        }
      ],
      "stateMutability": "view",
      "type": "function"
    },
    {
      "inputs": [
        {
          "internalType": "address",
          "name": "account",
          "type": "address"
        },
        {
          "internalType": "address",
          "name": "operator",
          "type": "address"
        }
      ],
      "name": "isApprovedForAll",
      "outputs": [
        {
          "internalType": "bool",
          "name": "",
          "type": "bool"
        }
      ],
      "stateMutability": "view",
      "type": "function"
    },
    {
      "inputs": [],
      "name": "name",
      "outputs": [
        {
          "internalType": "string",
          "name": "",
          "type": "string"
        }
      ],
      "stateMutability": "view",
      "type": "function"
    },
    {
      "inputs": [
        {
          "internalType": "address",
          "name": "",
          "type": "address"
        },
        {
          "internalType": "address",
          "name": "",
          "type": "address"
        },
        {
          "internalType": "uint256[]",
          "name": "",
          "type": "uint256[]"
        },
        {
          "internalType": "uint256[]",
          "name": "",
          "type": "uint256[]"
        },
        {
          "internalType": "bytes",
          "name": "",
          "type": "bytes"
        }
      ],
      "name": "onERC1155BatchReceived",
      "outputs": [
        {
          "internalType": "bytes4",
          "name": "",
          "type": "bytes4"
        }
      ],
      "stateMutability": "nonpayable",
      "type": "function"
    },
    {
      "inputs": [
        {
          "internalType": "address",
          "name": "",
          "type": "address"
        },
        {
          "internalType": "address",
          "name": "",
          "type": "address"
        },
        {
          "internalType": "uint256",
          "name": "",
          "type": "uint256"
        },
        {
          "internalType": "uint256",
          "name": "",
          "type": "uint256"
        },
        {
          "internalType": "bytes",
          "name": "",
          "type": "bytes"
        }
      ],
      "name": "onERC1155Received",
      "outputs": [
        {
          "internalType": "bytes4",
          "name": "",
          "type": "bytes4"
        }
      ],
      "stateMutability": "nonpayable",
      "type": "function"
    },
    {
      "inputs": [],
      "name": "owner",
      "outputs": [
        {
          "internalType": "address",
          "name": "",
          "type": "address"
        }
      ],
      "stateMutability": "view",
      "type": "function"
    },
    {
      "inputs": [],
      "name": "renounceOwnership",
      "outputs": [],
      "stateMutability": "nonpayable",
      "type": "function"
    },
    {
      "inputs": [
        {
          "internalType": "address",
          "name": "from",
          "type": "address"
        },
        {
          "internalType": "address",
          "name": "to",
          "type": "address"
        },
        {
          "internalType": "uint256[]",
          "name": "ids",
          "type": "uint256[]"
        },
        {
          "internalType": "uint256[]",
          "name": "amounts",
          "type": "uint256[]"
        },
        {
          "internalType": "bytes",
          "name": "data",
          "type": "bytes"
        }
      ],
      "name": "safeBatchTransferFrom",
      "outputs": [],
      "stateMutability": "nonpayable",
      "type": "function"
    },
    {
      "inputs": [
        {
          "internalType": "address",
          "name": "from",
          "type": "address"
        },
        {
          "internalType": "address",
          "name": "to",
          "type": "address"
        },
        {
          "internalType": "uint256",
          "name": "id",
          "type": "uint256"
        },
        {
          "internalType": "uint256",
          "name": "amount",
          "type": "uint256"
        },
        {
          "internalType": "bytes",
          "name": "data",
          "type": "bytes"
        }
      ],
      "name": "safeTransferFrom",
      "outputs": [],
      "stateMutability": "nonpayable",
      "type": "function"
    },
    {
      "inputs": [
        {
          "internalType": "address",
          "name": "operator",
          "type": "address"
        },
        {
          "internalType": "bool",
          "name": "approved",
          "type": "bool"
        }
      ],
      "name": "setApprovalForAll",
      "outputs": [],
      "stateMutability": "nonpayable",
      "type": "function"
    },
    {
      "inputs": [
        {
          "internalType": "bytes4",
          "name": "interfaceId",
          "type": "bytes4"
        }
      ],
      "name": "supportsInterface",
      "outputs": [
        {
          "internalType": "bool",
          "name": "",
          "type": "bool"
        }
      ],
      "stateMutability": "view",
      "type": "function"
    },
    {
      "inputs": [
        {
          "internalType": "address",
          "name": "newOwner",
          "type": "address"
        }
      ],
      "name": "transferOwnership",
      "outputs": [],
      "stateMutability": "nonpayable",
      "type": "function"
    },
    {
      "inputs": [
        {
          "internalType": "uint256",
          "name": "tokenId",
          "type": "uint256"
        }
      ],
      "name": "uri",
      "outputs": [
        {
          "internalType": "string",
          "name": "",
          "type": "string"
        }
      ],
      "stateMutability": "view",
      "type": "function"
    }
  ],
  "bytecode": "0x60806040523480156200001157600080fd5b5060405162002ecc38038062002ecc833981016040819052620000349162000244565b80620000408162000080565b506200004c3362000099565b815162000061906005906020850190620000eb565b50805162000077906006906020840190620000eb565b505050620002fe565b805162000095906002906020840190620000eb565b5050565b600380546001600160a01b038381166001600160a01b0319831681179093556040519116919082907f8be0079c531659141344cd1fd0a4f28419497f9722a3daafe3b4186f6b6457e090600090a35050565b828054620000f990620002ab565b90600052602060002090601f0160209004810192826200011d576000855562000168565b82601f106200013857805160ff191683800117855562000168565b8280016001018555821562000168579182015b82811115620001685782518255916020019190600101906200014b565b50620001769291506200017a565b5090565b5b808211156200017657600081556001016200017b565b600082601f830112620001a2578081fd5b81516001600160401b0380821115620001bf57620001bf620002e8565b604051601f8301601f19908116603f01168101908282118183101715620001ea57620001ea620002e8565b8160405283815260209250868385880101111562000206578485fd5b8491505b838210156200022957858201830151818301840152908201906200020a565b838211156200023a57848385830101525b9695505050505050565b6000806040838503121562000257578182fd5b82516001600160401b03808211156200026e578384fd5b6200027c8683870162000191565b9350602085015191508082111562000292578283fd5b50620002a18582860162000191565b9150509250929050565b600181811c90821680620002c057607f821691505b60208210811415620002e257634e487b7160e01b600052602260045260246000fd5b50919050565b634e487b7160e01b600052604160045260246000fd5b612bbe806200030e6000396000f3fe6080604052600436106101295760003560e01c8063715018a6116100ab578063bc197c811161006f578063bc197c8114610343578063d6febde814610388578063e985e9c51461039b578063f23a6e61146103e4578063f242432a14610410578063f2fde38b1461043057600080fd5b8063715018a6146102b15780638da5cb5b146102c657806390d16cba146102ee5780639abc83201461030e578063a22cb4651461032357600080fd5b806310d91cff116100f257806310d91cff146102005780632eb2c2d61461022d5780634275a8f71461024f5780634e1273f41461026f5780636ccffe761461029c57600080fd5b8062fdd58e1461012e57806301ffc9a71461016157806306fdde03146101915780630cb28a53146101b35780630e89341c146101e0575b600080fd5b34801561013a57600080fd5b5061014e61014936600461243e565b610450565b6040519081526020015b60405180910390f35b34801561016d57600080fd5b5061018161017c366004612528565b6104ea565b6040519015158152602001610158565b34801561019d57600080fd5b506101a66104f5565b604051610158919061283d565b3480156101bf57600080fd5b506101d36101ce3660046125d1565b610583565b6040516101589190612970565b3480156101ec57600080fd5b506101a66101fb3660046125d1565b610713565b34801561020c57600080fd5b5061022061021b36600461225c565b6107b8565b60405161015891906127a4565b34801561023957600080fd5b5061024d6102483660046122af565b610a85565b005b34801561025b57600080fd5b506101d361026a3660046123f2565b610b1c565b34801561027b57600080fd5b5061028f61028a366004612467565b610d9f565b6040516101589190612805565b3480156102a857600080fd5b50610220610f01565b3480156102bd57600080fd5b5061024d611150565b3480156102d257600080fd5b506003546040516001600160a01b039091168152602001610158565b3480156102fa57600080fd5b5061014e610309366004612560565b6111b6565b34801561031a57600080fd5b506101a6611204565b34801561032f57600080fd5b5061024d61033e3660046123b8565b611211565b34801561034f57600080fd5b5061036f61035e3660046122af565b63bc197c8160e01b95945050505050565b6040516001600160e01b03199091168152602001610158565b61024d6103963660046125e9565b611220565b3480156103a757600080fd5b506101816103b636600461227d565b6001600160a01b03918216600090815260016020908152604080832093909416825291909152205460ff1690565b3480156103f057600080fd5b5061036f6103ff366004612355565b63f23a6e6160e01b95945050505050565b34801561041c57600080fd5b5061024d61042b366004612355565b611511565b34801561043c57600080fd5b5061024d61044b36600461225c565b611598565b60006001600160a01b0383166104c15760405162461bcd60e51b815260206004820152602b60248201527f455243313135353a2062616c616e636520717565727920666f7220746865207a60448201526a65726f206164647265737360a81b60648201526084015b60405180910390fd5b506000818152602081815260408083206001600160a01b03861684529091529020545b92915050565b60006104e482611663565b6005805461050290612a21565b80601f016020809104026020016040519081016040528092919081815260200182805461052e90612a21565b801561057b5780601f106105505761010080835404028352916020019161057b565b820191906000526020600020905b81548152906001019060200180831161055e57829003601f168201915b505050505081565b61058b61207e565b600760008381526020019081526020016000206040518060e0016040529081600082015481526020016001820180546105c390612a21565b80601f01602080910402602001604051908101604052809291908181526020018280546105ef90612a21565b801561063c5780601f106106115761010080835404028352916020019161063c565b820191906000526020600020905b81548152906001019060200180831161061f57829003601f168201915b505050918352505060028201546001600160a01b0316602082015260038201805460409092019161066c90612a21565b80601f016020809104026020016040519081016040528092919081815260200182805461069890612a21565b80156106e55780601f106106ba576101008083540402835291602001916106e5565b820191906000526020600020905b8154815290600101906020018083116106c857829003601f168201915b5050505050815260200160048201548152602001600582015481526020016006820154815250509050919050565b600081815260076020526040902060010180546060919061073390612a21565b80601f016020809104026020016040519081016040528092919081815260200182805461075f90612a21565b80156107ac5780601f10610781576101008083540402835291602001916107ac565b820191906000526020600020905b81548152906001019060200180831161078f57829003601f168201915b50505050509050919050565b606060006107c560045490565b905060008060015b838111610819576000818152600760205260409020600201546001600160a01b0387811691161415610807578261080381612a89565b9350505b8061081181612a89565b9150506107cd565b5060008267ffffffffffffffff81111561084357634e487b7160e01b600052604160045260246000fd5b60405190808252806020026020018201604052801561087c57816020015b61086961207e565b8152602001906001900390816108615790505b50905060015b838111610a7b576000818152600760205260409020600201546001600160a01b0388811691161415610a6957600760008281526020019081526020016000206040518060e0016040529081600082015481526020016001820180546108e690612a21565b80601f016020809104026020016040519081016040528092919081815260200182805461091290612a21565b801561095f5780601f106109345761010080835404028352916020019161095f565b820191906000526020600020905b81548152906001019060200180831161094257829003601f168201915b505050918352505060028201546001600160a01b0316602082015260038201805460409092019161098f90612a21565b80601f01602080910402602001604051908101604052809291908181526020018280546109bb90612a21565b8015610a085780601f106109dd57610100808354040283529160200191610a08565b820191906000526020600020905b8154815290600101906020018083116109eb57829003601f168201915b505050505081526020016004820154815260200160058201548152602001600682015481525050828481518110610a4f57634e487b7160e01b600052603260045260246000fd5b60200260200101819052508280610a6590612a89565b9350505b80610a7381612a89565b915050610882565b5095945050505050565b6001600160a01b038516331480610aa15750610aa185336103b6565b610b085760405162461bcd60e51b815260206004820152603260248201527f455243313135353a207472616e736665722063616c6c6572206973206e6f74206044820152711bdddb995c881b9bdc88185c1c1c9bdd995960721b60648201526084016104b8565b610b158585858585611688565b5050505050565b610b2461207e565b6000610b2f60045490565b905060015b818111610d56576000600760008381526020019081526020016000206040518060e001604052908160008201548152602001600182018054610b7590612a21565b80601f0160208091040260200160405190810160405280929190818152602001828054610ba190612a21565b8015610bee5780601f10610bc357610100808354040283529160200191610bee565b820191906000526020600020905b815481529060010190602001808311610bd157829003601f168201915b505050918352505060028201546001600160a01b03166020820152600382018054604090920191610c1e90612a21565b80601f0160208091040260200160405190810160405280929190818152602001828054610c4a90612a21565b8015610c975780601f10610c6c57610100808354040283529160200191610c97565b820191906000526020600020905b815481529060010190602001808311610c7a57829003601f168201915b5050505050815260200160048201548152602001600582015481526020016006820154815250509050856001600160a01b031681604001516001600160a01b0316148015610d34575084604051602001610cf191906126e5565b604051602081830303815290604052805190602001208160600151604051602001610d1c91906126e5565b60405160208183030381529060405280519060200120145b15610d435792506104e4915050565b5080610d4e81612a89565b915050610b34565b5060405162461bcd60e51b815260206004820152601860248201527f4572726f722c2070726f64756374206e6f7420666f756e64000000000000000060448201526064016104b8565b60608151835114610e045760405162461bcd60e51b815260206004820152602960248201527f455243313135353a206163636f756e747320616e6420696473206c656e677468604482015268040dad2e6dac2e8c6d60bb1b60648201526084016104b8565b6000835167ffffffffffffffff811115610e2e57634e487b7160e01b600052604160045260246000fd5b604051908082528060200260200182016040528015610e57578160200160208202803683370190505b50905060005b8451811015610ef957610ebe858281518110610e8957634e487b7160e01b600052603260045260246000fd5b6020026020010151858381518110610eb157634e487b7160e01b600052603260045260246000fd5b6020026020010151610450565b828281518110610ede57634e487b7160e01b600052603260045260246000fd5b6020908102919091010152610ef281612a89565b9050610e5d565b509392505050565b60606000610f0e60045490565b905060008167ffffffffffffffff811115610f3957634e487b7160e01b600052604160045260246000fd5b604051908082528060200260200182016040528015610f7257816020015b610f5f61207e565b815260200190600190039081610f575790505b50905060005b828110156111495760076000610f8f8360016129a7565b81526020019081526020016000206040518060e001604052908160008201548152602001600182018054610fc290612a21565b80601f0160208091040260200160405190810160405280929190818152602001828054610fee90612a21565b801561103b5780601f106110105761010080835404028352916020019161103b565b820191906000526020600020905b81548152906001019060200180831161101e57829003601f168201915b505050918352505060028201546001600160a01b0316602082015260038201805460409092019161106b90612a21565b80601f016020809104026020016040519081016040528092919081815260200182805461109790612a21565b80156110e45780601f106110b9576101008083540402835291602001916110e4565b820191906000526020600020905b8154815290600101906020018083116110c757829003601f168201915b50505050508152602001600482015481526020016005820154815260200160068201548152505082828151811061112b57634e487b7160e01b600052603260045260246000fd5b6020026020010181905250808061114190612a89565b915050610f78565b5092915050565b6003546001600160a01b031633146111aa5760405162461bcd60e51b815260206004820181905260248201527f4f776e61626c653a2063616c6c6572206973206e6f7420746865206f776e657260448201526064016104b8565b6111b46000611881565b565b60006111c6600480546001019055565b60006111d160045490565b90506111ee338285604051806020016040528060008152506118d3565b6111fb81878787876119dd565b95945050505050565b6006805461050290612a21565b61121c338383611ba2565b5050565b6000600760008481526020019081526020016000206040518060e00160405290816000820154815260200160018201805461125a90612a21565b80601f016020809104026020016040519081016040528092919081815260200182805461128690612a21565b80156112d35780601f106112a8576101008083540402835291602001916112d3565b820191906000526020600020905b8154815290600101906020018083116112b657829003601f168201915b505050918352505060028201546001600160a01b0316602082015260038201805460409092019161130390612a21565b80601f016020809104026020016040519081016040528092919081815260200182805461132f90612a21565b801561137c5780601f106113515761010080835404028352916020019161137c565b820191906000526020600020905b81548152906001019060200180831161135f57829003601f168201915b505050505081526020016004820154815260200160058201548152602001600682015481525050905060008160c001518260a001516113bb91906129de565b60008581526007602052604090206005015460c0840151919250116114185760405162461bcd60e51b8152602060048201526013602482015272141c9bd91d58dd081a5cc81cdbdb19081bdd5d606a1b60448201526064016104b8565b808311156114685760405162461bcd60e51b815260206004820152601960248201527f4572726f722c207175616e7469747920746f6f206c617267650000000000000060448201526064016104b8565b82826080015161147891906129bf565b3410156114c75760405162461bcd60e51b815260206004820152601960248201527f4572726f722c2070726f6475637420636f737473206d6f72650000000000000060448201526064016104b8565b600084815260076020526040812060060180548592906114e89084906129a7565b9250508190555061150b3033868660405180602001604052806000815250611c83565b50505050565b6001600160a01b03851633148061152d575061152d85336103b6565b61158b5760405162461bcd60e51b815260206004820152602960248201527f455243313135353a2063616c6c6572206973206e6f74206f776e6572206e6f7260448201526808185c1c1c9bdd995960ba1b60648201526084016104b8565b610b158585858585611c83565b6003546001600160a01b031633146115f25760405162461bcd60e51b815260206004820181905260248201527f4f776e61626c653a2063616c6c6572206973206e6f7420746865206f776e657260448201526064016104b8565b6001600160a01b0381166116575760405162461bcd60e51b815260206004820152602660248201527f4f776e61626c653a206e6577206f776e657220697320746865207a65726f206160448201526564647265737360d01b60648201526084016104b8565b61166081611881565b50565b60006001600160e01b03198216630271189760e51b14806104e457506104e482611da0565b81518351146116ea5760405162461bcd60e51b815260206004820152602860248201527f455243313135353a2069647320616e6420616d6f756e7473206c656e677468206044820152670dad2e6dac2e8c6d60c31b60648201526084016104b8565b6001600160a01b0384166117105760405162461bcd60e51b81526004016104b8906128e1565b3360005b845181101561181357600085828151811061173f57634e487b7160e01b600052603260045260246000fd5b60200260200101519050600085838151811061176b57634e487b7160e01b600052603260045260246000fd5b602090810291909101810151600084815280835260408082206001600160a01b038e1683529093529190912054909150818110156117bb5760405162461bcd60e51b81526004016104b890612926565b6000838152602081815260408083206001600160a01b038e8116855292528083208585039055908b168252812080548492906117f89084906129a7565b925050819055505050508061180c90612a89565b9050611714565b50846001600160a01b0316866001600160a01b0316826001600160a01b03167f4a39dc06d4c0dbc64b70af90fd698a233a518aa5d07e595d983b8c0526c8f7fb8787604051611863929190612818565b60405180910390a4611879818787878787611df0565b505050505050565b600380546001600160a01b038381166001600160a01b0319831681179093556040519116919082907f8be0079c531659141344cd1fd0a4f28419497f9722a3daafe3b4186f6b6457e090600090a35050565b6001600160a01b0384166119335760405162461bcd60e51b815260206004820152602160248201527f455243313135353a206d696e7420746f20746865207a65726f206164647265736044820152607360f81b60648201526084016104b8565b3361194d8160008761194488611f5b565b610b1588611f5b565b6000848152602081815260408083206001600160a01b03891684529091528120805485929061197d9084906129a7565b909155505060408051858152602081018590526001600160a01b0380881692600092918516917fc3d58168c5ae7397731d063d5bbf3d657854427343f4c083240f7aacaa2d0f62910160405180910390a4610b1581600087878787611fb4565b60008211611a2d5760405162461bcd60e51b815260206004820152601c60248201527f5072696365206d757374206265206174206c656173742031207765690000000060448201526064016104b8565b60008111611a7d5760405162461bcd60e51b815260206004820152601960248201527f416d6f756e74206d757374206265206174206c6561737420310000000000000060448201526064016104b8565b6040805160e08101825286815260208082018781523383850152606083018790526080830186905260a08301859052600060c0840181905289815260078352939093208251815592518051929392611adb92600185019201906120c4565b5060408201516002820180546001600160a01b0319166001600160a01b0390921691909117905560608201518051611b1d9160038401916020909101906120c4565b506080820151816004015560a0820151816005015560c08201518160060155905050611b5b3330878460405180602001604052806000815250611511565b847f54f86dc84068701cacdb8ce34f0f1747ab6f7f6ae939d5bd5cb0ca29722f580c8533868686604051611b93959493929190612850565b60405180910390a25050505050565b816001600160a01b0316836001600160a01b03161415611c165760405162461bcd60e51b815260206004820152602960248201527f455243313135353a2073657474696e6720617070726f76616c20737461747573604482015268103337b91039b2b63360b91b60648201526084016104b8565b6001600160a01b03838116600081815260016020908152604080832094871680845294825291829020805460ff191686151590811790915591519182527f17307eab39ab6107e8899845ad3d59bd9653f200f220920489ca2b5937696c31910160405180910390a3505050565b6001600160a01b038416611ca95760405162461bcd60e51b81526004016104b8906128e1565b33611cb981878761194488611f5b565b6000848152602081815260408083206001600160a01b038a16845290915290205483811015611cfa5760405162461bcd60e51b81526004016104b890612926565b6000858152602081815260408083206001600160a01b038b8116855292528083208785039055908816825281208054869290611d379084906129a7565b909155505060408051868152602081018690526001600160a01b03808916928a821692918616917fc3d58168c5ae7397731d063d5bbf3d657854427343f4c083240f7aacaa2d0f62910160405180910390a4611d97828888888888611fb4565b50505050505050565b60006001600160e01b03198216636cdb3d1360e11b1480611dd157506001600160e01b031982166303a24d0760e21b145b806104e457506301ffc9a760e01b6001600160e01b03198316146104e4565b6001600160a01b0384163b156118795760405163bc197c8160e01b81526001600160a01b0385169063bc197c8190611e349089908990889088908890600401612701565b602060405180830381600087803b158015611e4e57600080fd5b505af1925050508015611e7e575060408051601f3d908101601f19168201909252611e7b91810190612544565b60015b611f2b57611e8a612ad0565b806308c379a01415611ec45750611e9f612ae8565b80611eaa5750611ec6565b8060405162461bcd60e51b81526004016104b8919061283d565b505b60405162461bcd60e51b815260206004820152603460248201527f455243313135353a207472616e7366657220746f206e6f6e20455243313135356044820152732932b1b2b4bb32b91034b6b83632b6b2b73a32b960611b60648201526084016104b8565b6001600160e01b0319811663bc197c8160e01b14611d975760405162461bcd60e51b81526004016104b890612899565b60408051600180825281830190925260609160009190602080830190803683370190505090508281600081518110611fa357634e487b7160e01b600052603260045260246000fd5b602090810291909101015292915050565b6001600160a01b0384163b156118795760405163f23a6e6160e01b81526001600160a01b0385169063f23a6e6190611ff8908990899088908890889060040161275f565b602060405180830381600087803b15801561201257600080fd5b505af1925050508015612042575060408051601f3d908101601f1916820190925261203f91810190612544565b60015b61204e57611e8a612ad0565b6001600160e01b0319811663f23a6e6160e01b14611d975760405162461bcd60e51b81526004016104b890612899565b6040518060e00160405280600081526020016060815260200160006001600160a01b03168152602001606081526020016000815260200160008152602001600081525090565b8280546120d090612a21565b90600052602060002090601f0160209004810192826120f25760008555612138565b82601f1061210b57805160ff1916838001178555612138565b82800160010185558215612138579182015b8281111561213857825182559160200191906001019061211d565b50612144929150612148565b5090565b5b808211156121445760008155600101612149565b80356001600160a01b038116811461217457600080fd5b919050565b600082601f830112612189578081fd5b8135602061219682612983565b6040516121a38282612a5c565b8381528281019150858301600585901b870184018810156121c2578586fd5b855b858110156121e0578135845292840192908401906001016121c4565b5090979650505050505050565b600082601f8301126121fd578081fd5b813567ffffffffffffffff81111561221757612217612aba565b60405161222e601f8301601f191660200182612a5c565b818152846020838601011115612242578283fd5b816020850160208301379081016020019190915292915050565b60006020828403121561226d578081fd5b6122768261215d565b9392505050565b6000806040838503121561228f578081fd5b6122988361215d565b91506122a66020840161215d565b90509250929050565b600080600080600060a086880312156122c6578081fd5b6122cf8661215d565b94506122dd6020870161215d565b9350604086013567ffffffffffffffff808211156122f9578283fd5b61230589838a01612179565b9450606088013591508082111561231a578283fd5b61232689838a01612179565b9350608088013591508082111561233b578283fd5b50612348888289016121ed565b9150509295509295909350565b600080600080600060a0868803121561236c578081fd5b6123758661215d565b94506123836020870161215d565b93506040860135925060608601359150608086013567ffffffffffffffff8111156123ac578182fd5b612348888289016121ed565b600080604083850312156123ca578182fd5b6123d38361215d565b9150602083013580151581146123e7578182fd5b809150509250929050565b60008060408385031215612404578182fd5b61240d8361215d565b9150602083013567ffffffffffffffff811115612428578182fd5b612434858286016121ed565b9150509250929050565b60008060408385031215612450578182fd5b6124598361215d565b946020939093013593505050565b60008060408385031215612479578182fd5b823567ffffffffffffffff80821115612490578384fd5b818501915085601f8301126124a3578384fd5b813560206124b082612983565b6040516124bd8282612a5c565b8381528281019150858301600585901b870184018b10156124dc578889fd5b8896505b84871015612505576124f18161215d565b8352600196909601959183019183016124e0565b509650508601359250508082111561251b578283fd5b5061243485828601612179565b600060208284031215612539578081fd5b813561227681612b72565b600060208284031215612555578081fd5b815161227681612b72565b60008060008060808587031215612575578182fd5b843567ffffffffffffffff8082111561258c578384fd5b612598888389016121ed565b955060208701359150808211156125ad578384fd5b506125ba878288016121ed565b949794965050505060408301359260600135919050565b6000602082840312156125e2578081fd5b5035919050565b600080604083850312156125fb578182fd5b50508035926020909101359150565b6000815180845260208085019450808401835b838110156126395781518752958201959082019060010161261d565b509495945050505050565b6000815180845261265c8160208601602086016129f5565b601f01601f19169290920160200192915050565b805182526000602082015160e0602085015261268f60e0850182612644565b905060018060a01b036040840151166040850152606083015184820360608601526126ba8282612644565b9150506080830151608085015260a083015160a085015260c083015160c08501528091505092915050565b600082516126f78184602087016129f5565b9190910192915050565b6001600160a01b0386811682528516602082015260a06040820181905260009061272d9083018661260a565b828103606084015261273f818661260a565b905082810360808401526127538185612644565b98975050505050505050565b6001600160a01b03868116825285166020820152604081018490526060810183905260a06080820181905260009061279990830184612644565b979650505050505050565b6000602080830181845280855180835260408601915060408160051b8701019250838701855b828110156127f857603f198886030184526127e6858351612670565b945092850192908501906001016127ca565b5092979650505050505050565b602081526000612276602083018461260a565b60408152600061282b604083018561260a565b82810360208401526111fb818561260a565b6020815260006122766020830184612644565b60a08152600061286360a0830188612644565b6001600160a01b038716602084015282810360408401526128848187612644565b60608401959095525050608001529392505050565b60208082526028908201527f455243313135353a204552433131353552656365697665722072656a656374656040820152676420746f6b656e7360c01b606082015260800190565b60208082526025908201527f455243313135353a207472616e7366657220746f20746865207a65726f206164604082015264647265737360d81b606082015260800190565b6020808252602a908201527f455243313135353a20696e73756666696369656e742062616c616e636520666f60408201526939103a3930b739b332b960b11b606082015260800190565b6020815260006122766020830184612670565b600067ffffffffffffffff82111561299d5761299d612aba565b5060051b60200190565b600082198211156129ba576129ba612aa4565b500190565b60008160001904831182151516156129d9576129d9612aa4565b500290565b6000828210156129f0576129f0612aa4565b500390565b60005b83811015612a105781810151838201526020016129f8565b8381111561150b5750506000910152565b600181811c90821680612a3557607f821691505b60208210811415612a5657634e487b7160e01b600052602260045260246000fd5b50919050565b601f8201601f1916810167ffffffffffffffff81118282101715612a8257612a82612aba565b6040525050565b6000600019821415612a9d57612a9d612aa4565b5060010190565b634e487b7160e01b600052601160045260246000fd5b634e487b7160e01b600052604160045260246000fd5b600060033d1115612ae557600481823e5160e01c5b90565b600060443d1015612af65790565b6040516003193d81016004833e81513d67ffffffffffffffff8160248401118184111715612b2657505050505090565b8285019150815181811115612b3e5750505050505090565b843d8701016020828501011115612b585750505050505090565b612b6760208286010187612a5c565b509095945050505050565b6001600160e01b03198116811461166057600080fdfea2646970667358221220b9439313271a9cb7a77098fe8285a8fa995641de334e37d39d6b9f32557b0da964736f6c63430008040033",
  "linkReferences": {},
  "deployedLinkReferences": {}
}