{
  "_format": "hh-sol-artifact-1",
  "contractName": "ProfitSharingToken",
  "sourceName": "contracts/ProfitSharingToken.sol",
  "abi": [
    {
      "inputs": [
        {
          "internalType": "uint256",
          "name": "maxSupply",
          "type": "uint256"
        },
        {
          "internalType": "uint256",
          "name": "initialSupply",
          "type": "uint256"
        }
      ],
      "stateMutability": "nonpayable",
      "type": "constructor"
    },
    {
      "anonymous": false,
      "inputs": [
        {
          "indexed": true,
          "internalType": "address",
          "name": "owner",
          "type": "address"
        },
        {
          "indexed": true,
          "internalType": "address",
          "name": "spender",
          "type": "address"
        },
        {
          "indexed": false,
          "internalType": "uint256",
          "name": "value",
          "type": "uint256"
        }
      ],
      "name": "Approval",
      "type": "event"
    },
    {
      "anonymous": false,
      "inputs": [
        {
          "indexed": true,
          "internalType": "address",
          "name": "previousOwner",
          "type": "address"
        },
        {
          "indexed": true,
          "internalType": "address",
          "name": "newOwner",
          "type": "address"
        }
      ],
      "name": "OwnershipTransferred",
      "type": "event"
    },
    {
      "anonymous": false,
      "inputs": [
        {
          "indexed": true,
          "internalType": "address",
          "name": "from",
          "type": "address"
        },
        {
          "indexed": true,
          "internalType": "address",
          "name": "to",
          "type": "address"
        },
        {
          "indexed": false,
          "internalType": "uint256",
          "name": "value",
          "type": "uint256"
        }
      ],
      "name": "Transfer",
      "type": "event"
    },
    {
      "inputs": [
        {
          "internalType": "address",
          "name": "holder",
          "type": "address"
        }
      ],
      "name": "addOwner",
      "outputs": [],
      "stateMutability": "nonpayable",
      "type": "function"
    },
    {
      "inputs": [
        {
          "internalType": "address",
          "name": "owner",
          "type": "address"
        },
        {
          "internalType": "address",
          "name": "spender",
          "type": "address"
        }
      ],
      "name": "allowance",
      "outputs": [
        {
          "internalType": "uint256",
          "name": "",
          "type": "uint256"
        }
      ],
      "stateMutability": "view",
      "type": "function"
    },
    {
      "inputs": [
        {
          "internalType": "address",
          "name": "spender",
          "type": "address"
        },
        {
          "internalType": "uint256",
          "name": "amount",
          "type": "uint256"
        }
      ],
      "name": "approve",
      "outputs": [
        {
          "internalType": "bool",
          "name": "",
          "type": "bool"
        }
      ],
      "stateMutability": "nonpayable",
      "type": "function"
    },
    {
      "inputs": [
        {
          "internalType": "address",
          "name": "account",
          "type": "address"
        }
      ],
      "name": "balanceOf",
      "outputs": [
        {
          "internalType": "uint256",
          "name": "",
          "type": "uint256"
        }
      ],
      "stateMutability": "view",
      "type": "function"
    },
    {
      "inputs": [],
      "name": "decimals",
      "outputs": [
        {
          "internalType": "uint8",
          "name": "",
          "type": "uint8"
        }
      ],
      "stateMutability": "view",
      "type": "function"
    },
    {
      "inputs": [
        {
          "internalType": "address",
          "name": "spender",
          "type": "address"
        },
        {
          "internalType": "uint256",
          "name": "subtractedValue",
          "type": "uint256"
        }
      ],
      "name": "decreaseAllowance",
      "outputs": [
        {
          "internalType": "bool",
          "name": "",
          "type": "bool"
        }
      ],
      "stateMutability": "nonpayable",
      "type": "function"
    },
    {
      "inputs": [
        {
          "internalType": "address",
          "name": "spender",
          "type": "address"
        },
        {
          "internalType": "uint256",
          "name": "addedValue",
          "type": "uint256"
        }
      ],
      "name": "increaseAllowance",
      "outputs": [
        {
          "internalType": "bool",
          "name": "",
          "type": "bool"
        }
      ],
      "stateMutability": "nonpayable",
      "type": "function"
    },
    {
      "inputs": [],
      "name": "invest",
      "outputs": [],
      "stateMutability": "payable",
      "type": "function"
    },
    {
      "inputs": [],
      "name": "name",
      "outputs": [
        {
          "internalType": "string",
          "name": "",
          "type": "string"
        }
      ],
      "stateMutability": "view",
      "type": "function"
    },
    {
      "inputs": [],
      "name": "owner",
      "outputs": [
        {
          "internalType": "address",
          "name": "",
          "type": "address"
        }
      ],
      "stateMutability": "view",
      "type": "function"
    },
    {
      "inputs": [
        {
          "internalType": "address",
          "name": "account",
          "type": "address"
        }
      ],
      "name": "profitBalanceOf",
      "outputs": [
        {
          "internalType": "uint256",
          "name": "",
          "type": "uint256"
        }
      ],
      "stateMutability": "view",
      "type": "function"
    },
    {
      "inputs": [],
      "name": "renounceOwnership",
      "outputs": [],
      "stateMutability": "nonpayable",
      "type": "function"
    },
    {
      "inputs": [],
      "name": "symbol",
      "outputs": [
        {
          "internalType": "string",
          "name": "",
          "type": "string"
        }
      ],
      "stateMutability": "view",
      "type": "function"
    },
    {
      "inputs": [],
      "name": "totalHolders",
      "outputs": [
        {
          "internalType": "uint256",
          "name": "",
          "type": "uint256"
        }
      ],
      "stateMutability": "view",
      "type": "function"
    },
    {
      "inputs": [],
      "name": "totalSupply",
      "outputs": [
        {
          "internalType": "uint256",
          "name": "",
          "type": "uint256"
        }
      ],
      "stateMutability": "view",
      "type": "function"
    },
    {
      "inputs": [
        {
          "internalType": "address",
          "name": "to",
          "type": "address"
        },
        {
          "internalType": "uint256",
          "name": "amount",
          "type": "uint256"
        }
      ],
      "name": "transfer",
      "outputs": [
        {
          "internalType": "bool",
          "name": "",
          "type": "bool"
        }
      ],
      "stateMutability": "nonpayable",
      "type": "function"
    },
    {
      "inputs": [
        {
          "internalType": "address",
          "name": "from",
          "type": "address"
        },
        {
          "internalType": "address",
          "name": "to",
          "type": "address"
        },
        {
          "internalType": "uint256",
          "name": "amount",
          "type": "uint256"
        }
      ],
      "name": "transferFrom",
      "outputs": [
        {
          "internalType": "bool",
          "name": "",
          "type": "bool"
        }
      ],
      "stateMutability": "nonpayable",
      "type": "function"
    },
    {
      "inputs": [
        {
          "internalType": "address",
          "name": "newOwner",
          "type": "address"
        }
      ],
      "name": "transferOwnership",
      "outputs": [],
      "stateMutability": "nonpayable",
      "type": "function"
    },
    {
      "inputs": [
        {
          "internalType": "uint256",
          "name": "maxSupply",
          "type": "uint256"
        }
      ],
      "name": "updateMaxSupply",
      "outputs": [],
      "stateMutability": "nonpayable",
      "type": "function"
    },
    {
      "inputs": [
        {
          "internalType": "uint256",
          "name": "price",
          "type": "uint256"
        }
      ],
      "name": "updatePrice",
      "outputs": [],
      "stateMutability": "nonpayable",
      "type": "function"
    },
    {
      "inputs": [],
      "name": "withdrawProfits",
      "outputs": [],
      "stateMutability": "nonpayable",
      "type": "function"
    },
    {
      "stateMutability": "payable",
      "type": "receive"
    }
  ],
  "bytecode": "0x608060405266038d7ea4c680006008553480156200001c57600080fd5b50604051620016a4380380620016a48339810160408190526200003f9162000418565b6040518060400160405280601481526020017f50726f6669742053686172696e6720546f6b656e000000000000000000000000815250604051806040016040528060038152602001621414d560ea1b8152508160039080519060200190620000a992919062000372565b508051620000bf90600490602084019062000372565b505050620000dc620000d6620001c260201b60201c565b620001c6565b600160065580620001405760405162461bcd60e51b8152602060048201526024808201527f496e7469616c20737570706c79206d75737420626520677265617465722074686044820152630616e20360e41b60648201526084015b60405180910390fd5b808210156200019e5760405162461bcd60e51b8152602060048201526024808201527f4d617820737570706c79206d757374206265203e3d20696e697469616c20737560448201526370706c7960e01b606482015260840162000137565b6007829055620001af338262000218565b620001ba33620002fd565b50506200049e565b3390565b600580546001600160a01b038381166001600160a01b0319831681179093556040519116919082907f8be0079c531659141344cd1fd0a4f28419497f9722a3daafe3b4186f6b6457e090600090a35050565b6001600160a01b038216620002705760405162461bcd60e51b815260206004820152601f60248201527f45524332303a206d696e7420746f20746865207a65726f206164647265737300604482015260640162000137565b80600260008282546200028491906200043c565b90915550506001600160a01b03821660009081526020819052604081208054839290620002b39084906200043c565b90915550506040518181526001600160a01b038316906000907fddf252ad1be2c89b69c2b068fc378daa952ba7f163c4a11628f55a4df523b3ef9060200160405180910390a35050565b80600a60006200031960096200036560201b620009381760201c565b815260200190815260200160002060006101000a8154816001600160a01b0302191690836001600160a01b031602179055506200036260096200036960201b6200093c1760201c565b50565b5490565b80546001019055565b828054620003809062000461565b90600052602060002090601f016020900481019282620003a45760008555620003ef565b82601f10620003bf57805160ff1916838001178555620003ef565b82800160010185558215620003ef579182015b82811115620003ef578251825591602001919060010190620003d2565b50620003fd92915062000401565b5090565b5b80821115620003fd576000815560010162000402565b600080604083850312156200042b578182fd5b505080516020909101519092909150565b600082198211156200045c57634e487b7160e01b81526011600452602481fd5b500190565b600181811c908216806200047657607f821691505b602082108114156200049857634e487b7160e01b600052602260045260246000fd5b50919050565b6111f680620004ae6000396000f3fe60806040526004361061012e5760003560e01c8063715018a6116100ab578063a9059cbb1161006f578063a9059cbb1461032b578063dd62ed3e1461034b578063e7b69b9014610391578063e8b5e51f146103c7578063f103b433146103cf578063f2fde38b146103ef57600080fd5b8063715018a6146102995780638d6cc56d146102ae5780638da5cb5b146102ce57806395d89b41146102f6578063a457c2d71461030b57600080fd5b806339509351116100f257806339509351146101f957806339913e091461021957806353d74fdf1461022e5780637065cb481461024357806370a082311461026357600080fd5b806306fdde0314610143578063095ea7b31461016e57806318160ddd1461019e57806323b872dd146101bd578063313ce567146101dd57600080fd5b3661013e5761013c3461040f565b005b600080fd5b34801561014f57600080fd5b50610158610498565b6040516101659190611075565b60405180910390f35b34801561017a57600080fd5b5061018e610189366004611034565b61052a565b6040519015158152602001610165565b3480156101aa57600080fd5b506002545b604051908152602001610165565b3480156101c957600080fd5b5061018e6101d8366004610ff9565b610542565b3480156101e957600080fd5b5060405160128152602001610165565b34801561020557600080fd5b5061018e610214366004611034565b610566565b34801561022557600080fd5b5061013c6105a5565b34801561023a57600080fd5b506101af610629565b34801561024f57600080fd5b5061013c61025e366004610fad565b610639565b34801561026f57600080fd5b506101af61027e366004610fad565b6001600160a01b031660009081526020819052604090205490565b3480156102a557600080fd5b5061013c61066f565b3480156102ba57600080fd5b5061013c6102c936600461105d565b6106a5565b3480156102da57600080fd5b506005546040516001600160a01b039091168152602001610165565b34801561030257600080fd5b506101586106d4565b34801561031757600080fd5b5061018e610326366004611034565b6106e3565b34801561033757600080fd5b5061018e610346366004611034565b610775565b34801561035757600080fd5b506101af610366366004610fc7565b6001600160a01b03918216600090815260016020908152604080832093909416825291909152205490565b34801561039d57600080fd5b506101af6103ac366004610fad565b6001600160a01b03166000908152600b602052604090205490565b61013c610783565b3480156103db57600080fd5b5061013c6103ea36600461105d565b610871565b3480156103fb57600080fd5b5061013c61040a366004610fad565b6108a0565b60005b600954811015610494576000818152600a60209081526040808320546001600160a01b031680845291839052822054909150600061046261045260025490565b61045c8785610945565b90610958565b6001600160a01b039093166000908152600b60205260409020929092555081905061048c8161118f565b915050610412565b5050565b6060600380546104a790611154565b80601f01602080910402602001604051908101604052809291908181526020018280546104d390611154565b80156105205780601f106104f557610100808354040283529160200191610520565b820191906000526020600020905b81548152906001019060200180831161050357829003601f168201915b5050505050905090565b600033610538818585610964565b5060019392505050565b600033610550858285610a88565b61055b858585610b1a565b506001949350505050565b3360008181526001602090815260408083206001600160a01b038716845290915281205490919061053890829086906105a09087906110fd565b610964565b600260065414156105fd5760405162461bcd60e51b815260206004820152601f60248201527f5265656e7472616e637947756172643a207265656e7472616e742063616c6c0060448201526064015b60405180910390fd5b6002600655336000818152600b602052604081208054919055906106219082610ce8565b506001600655565b600061063460095490565b905090565b6005546001600160a01b031633146106635760405162461bcd60e51b81526004016105f4906110c8565b61066c81610e06565b50565b6005546001600160a01b031633146106995760405162461bcd60e51b81526004016105f4906110c8565b6106a36000610e54565b565b6005546001600160a01b031633146106cf5760405162461bcd60e51b81526004016105f4906110c8565b600855565b6060600480546104a790611154565b3360008181526001602090815260408083206001600160a01b0387168452909152812054909190838110156107685760405162461bcd60e51b815260206004820152602560248201527f45524332303a2064656372656173656420616c6c6f77616e63652062656c6f77604482015264207a65726f60d81b60648201526084016105f4565b61055b8286868403610964565b600033610538818585610b1a565b6008543410156107e15760405162461bcd60e51b8152602060048201526024808201527f4572726f722c20796f75206d75737420627579206174206c656173742031207460448201526337b5b2b760e11b60648201526084016105f4565b60006107f86008543461095890919063ffffffff16565b90506007546108108261080a60025490565b90610ea6565b111561085e5760405162461bcd60e51b815260206004820181905260248201527f4572726f722c20696e73756666696369656e7420746f6b656e20737570706c7960448201526064016105f4565b6108683382610eb2565b61066c33610e06565b6005546001600160a01b0316331461089b5760405162461bcd60e51b81526004016105f4906110c8565b600755565b6005546001600160a01b031633146108ca5760405162461bcd60e51b81526004016105f4906110c8565b6001600160a01b03811661092f5760405162461bcd60e51b815260206004820152602660248201527f4f776e61626c653a206e6577206f776e657220697320746865207a65726f206160448201526564647265737360d01b60648201526084016105f4565b61066c81610e54565b5490565b80546001019055565b60006109518284611135565b9392505050565b60006109518284611115565b6001600160a01b0383166109c65760405162461bcd60e51b8152602060048201526024808201527f45524332303a20617070726f76652066726f6d20746865207a65726f206164646044820152637265737360e01b60648201526084016105f4565b6001600160a01b038216610a275760405162461bcd60e51b815260206004820152602260248201527f45524332303a20617070726f766520746f20746865207a65726f206164647265604482015261737360f01b60648201526084016105f4565b6001600160a01b0383811660008181526001602090815260408083209487168084529482529182902085905590518481527f8c5be1e5ebec7d5bd14f71427d1e84f3dd0314c0f7b2291e5b200ac8c7c3b925910160405180910390a3505050565b6001600160a01b038381166000908152600160209081526040808320938616835292905220546000198114610b145781811015610b075760405162461bcd60e51b815260206004820152601d60248201527f45524332303a20696e73756666696369656e7420616c6c6f77616e636500000060448201526064016105f4565b610b148484848403610964565b50505050565b6001600160a01b038316610b7e5760405162461bcd60e51b815260206004820152602560248201527f45524332303a207472616e736665722066726f6d20746865207a65726f206164604482015264647265737360d81b60648201526084016105f4565b6001600160a01b038216610be05760405162461bcd60e51b815260206004820152602360248201527f45524332303a207472616e7366657220746f20746865207a65726f206164647260448201526265737360e81b60648201526084016105f4565b6001600160a01b03831660009081526020819052604090205481811015610c585760405162461bcd60e51b815260206004820152602660248201527f45524332303a207472616e7366657220616d6f756e7420657863656564732062604482015265616c616e636560d01b60648201526084016105f4565b6001600160a01b03808516600090815260208190526040808220858503905591851681529081208054849290610c8f9084906110fd565b92505081905550826001600160a01b0316846001600160a01b03167fddf252ad1be2c89b69c2b068fc378daa952ba7f163c4a11628f55a4df523b3ef84604051610cdb91815260200190565b60405180910390a3610b14565b80471015610d385760405162461bcd60e51b815260206004820152601d60248201527f416464726573733a20696e73756666696369656e742062616c616e636500000060448201526064016105f4565b6000826001600160a01b03168260405160006040518083038185875af1925050503d8060008114610d85576040519150601f19603f3d011682016040523d82523d6000602084013e610d8a565b606091505b5050905080610e015760405162461bcd60e51b815260206004820152603a60248201527f416464726573733a20756e61626c6520746f2073656e642076616c75652c207260448201527f6563697069656e74206d6179206861766520726576657274656400000000000060648201526084016105f4565b505050565b80600a6000610e1460095490565b815260200190815260200160002060006101000a8154816001600160a01b0302191690836001600160a01b0316021790555061066c600980546001019055565b600580546001600160a01b038381166001600160a01b0319831681179093556040519116919082907f8be0079c531659141344cd1fd0a4f28419497f9722a3daafe3b4186f6b6457e090600090a35050565b600061095182846110fd565b6001600160a01b038216610f085760405162461bcd60e51b815260206004820152601f60248201527f45524332303a206d696e7420746f20746865207a65726f20616464726573730060448201526064016105f4565b8060026000828254610f1a91906110fd565b90915550506001600160a01b03821660009081526020819052604081208054839290610f479084906110fd565b90915550506040518181526001600160a01b038316906000907fddf252ad1be2c89b69c2b068fc378daa952ba7f163c4a11628f55a4df523b3ef9060200160405180910390a35050565b80356001600160a01b0381168114610fa857600080fd5b919050565b600060208284031215610fbe578081fd5b61095182610f91565b60008060408385031215610fd9578081fd5b610fe283610f91565b9150610ff060208401610f91565b90509250929050565b60008060006060848603121561100d578081fd5b61101684610f91565b925061102460208501610f91565b9150604084013590509250925092565b60008060408385031215611046578182fd5b61104f83610f91565b946020939093013593505050565b60006020828403121561106e578081fd5b5035919050565b6000602080835283518082850152825b818110156110a157858101830151858201604001528201611085565b818111156110b25783604083870101525b50601f01601f1916929092016040019392505050565b6020808252818101527f4f776e61626c653a2063616c6c6572206973206e6f7420746865206f776e6572604082015260600190565b60008219821115611110576111106111aa565b500190565b60008261113057634e487b7160e01b81526012600452602481fd5b500490565b600081600019048311821515161561114f5761114f6111aa565b500290565b600181811c9082168061116857607f821691505b6020821081141561118957634e487b7160e01b600052602260045260246000fd5b50919050565b60006000198214156111a3576111a36111aa565b5060010190565b634e487b7160e01b600052601160045260246000fdfea26469706673582212207c712eb503e1072354eb0c9a245a9a6284323ff3cf51f4bdeb07488b96d32fef64736f6c63430008040033",
  "linkReferences": {},
  "deployedLinkReferences": {}
}