{
  "_format": "hh-sol-artifact-1",
  "contractName": "ProfitSharingToken",
  "sourceName": "contracts/ProfitSharingToken.sol",
  "abi": [
    {
      "inputs": [
        {
          "internalType": "uint256",
          "name": "maxSupply",
          "type": "uint256"
        },
        {
          "internalType": "uint256",
          "name": "initialSupply",
          "type": "uint256"
        }
      ],
      "stateMutability": "nonpayable",
      "type": "constructor"
    },
    {
      "anonymous": false,
      "inputs": [
        {
          "indexed": true,
          "internalType": "address",
          "name": "owner",
          "type": "address"
        },
        {
          "indexed": true,
          "internalType": "address",
          "name": "spender",
          "type": "address"
        },
        {
          "indexed": false,
          "internalType": "uint256",
          "name": "value",
          "type": "uint256"
        }
      ],
      "name": "Approval",
      "type": "event"
    },
    {
      "anonymous": false,
      "inputs": [
        {
          "indexed": true,
          "internalType": "address",
          "name": "previousOwner",
          "type": "address"
        },
        {
          "indexed": true,
          "internalType": "address",
          "name": "newOwner",
          "type": "address"
        }
      ],
      "name": "OwnershipTransferred",
      "type": "event"
    },
    {
      "anonymous": false,
      "inputs": [
        {
          "indexed": true,
          "internalType": "address",
          "name": "from",
          "type": "address"
        },
        {
          "indexed": true,
          "internalType": "address",
          "name": "to",
          "type": "address"
        },
        {
          "indexed": false,
          "internalType": "uint256",
          "name": "value",
          "type": "uint256"
        }
      ],
      "name": "Transfer",
      "type": "event"
    },
    {
      "inputs": [
        {
          "internalType": "address",
          "name": "holder",
          "type": "address"
        }
      ],
      "name": "addOwner",
      "outputs": [],
      "stateMutability": "nonpayable",
      "type": "function"
    },
    {
      "inputs": [
        {
          "internalType": "address",
          "name": "owner",
          "type": "address"
        },
        {
          "internalType": "address",
          "name": "spender",
          "type": "address"
        }
      ],
      "name": "allowance",
      "outputs": [
        {
          "internalType": "uint256",
          "name": "",
          "type": "uint256"
        }
      ],
      "stateMutability": "view",
      "type": "function"
    },
    {
      "inputs": [
        {
          "internalType": "address",
          "name": "spender",
          "type": "address"
        },
        {
          "internalType": "uint256",
          "name": "amount",
          "type": "uint256"
        }
      ],
      "name": "approve",
      "outputs": [
        {
          "internalType": "bool",
          "name": "",
          "type": "bool"
        }
      ],
      "stateMutability": "nonpayable",
      "type": "function"
    },
    {
      "inputs": [
        {
          "internalType": "address",
          "name": "account",
          "type": "address"
        }
      ],
      "name": "balanceOf",
      "outputs": [
        {
          "internalType": "uint256",
          "name": "",
          "type": "uint256"
        }
      ],
      "stateMutability": "view",
      "type": "function"
    },
    {
      "inputs": [],
      "name": "decimals",
      "outputs": [
        {
          "internalType": "uint8",
          "name": "",
          "type": "uint8"
        }
      ],
      "stateMutability": "view",
      "type": "function"
    },
    {
      "inputs": [
        {
          "internalType": "address",
          "name": "spender",
          "type": "address"
        },
        {
          "internalType": "uint256",
          "name": "subtractedValue",
          "type": "uint256"
        }
      ],
      "name": "decreaseAllowance",
      "outputs": [
        {
          "internalType": "bool",
          "name": "",
          "type": "bool"
        }
      ],
      "stateMutability": "nonpayable",
      "type": "function"
    },
    {
      "inputs": [
        {
          "internalType": "address",
          "name": "spender",
          "type": "address"
        },
        {
          "internalType": "uint256",
          "name": "addedValue",
          "type": "uint256"
        }
      ],
      "name": "increaseAllowance",
      "outputs": [
        {
          "internalType": "bool",
          "name": "",
          "type": "bool"
        }
      ],
      "stateMutability": "nonpayable",
      "type": "function"
    },
    {
      "inputs": [],
      "name": "invest",
      "outputs": [],
      "stateMutability": "payable",
      "type": "function"
    },
    {
      "inputs": [],
      "name": "name",
      "outputs": [
        {
          "internalType": "string",
          "name": "",
          "type": "string"
        }
      ],
      "stateMutability": "view",
      "type": "function"
    },
    {
      "inputs": [],
      "name": "owner",
      "outputs": [
        {
          "internalType": "address",
          "name": "",
          "type": "address"
        }
      ],
      "stateMutability": "view",
      "type": "function"
    },
    {
      "inputs": [
        {
          "internalType": "address",
          "name": "account",
          "type": "address"
        }
      ],
      "name": "profitBalanceOf",
      "outputs": [
        {
          "internalType": "uint256",
          "name": "",
          "type": "uint256"
        }
      ],
      "stateMutability": "view",
      "type": "function"
    },
    {
      "inputs": [],
      "name": "renounceOwnership",
      "outputs": [],
      "stateMutability": "nonpayable",
      "type": "function"
    },
    {
      "inputs": [],
      "name": "shareProfits",
      "outputs": [],
      "stateMutability": "payable",
      "type": "function"
    },
    {
      "inputs": [],
      "name": "symbol",
      "outputs": [
        {
          "internalType": "string",
          "name": "",
          "type": "string"
        }
      ],
      "stateMutability": "view",
      "type": "function"
    },
    {
      "inputs": [],
      "name": "totalHolders",
      "outputs": [
        {
          "internalType": "uint256",
          "name": "",
          "type": "uint256"
        }
      ],
      "stateMutability": "view",
      "type": "function"
    },
    {
      "inputs": [],
      "name": "totalSupply",
      "outputs": [
        {
          "internalType": "uint256",
          "name": "",
          "type": "uint256"
        }
      ],
      "stateMutability": "view",
      "type": "function"
    },
    {
      "inputs": [
        {
          "internalType": "address",
          "name": "to",
          "type": "address"
        },
        {
          "internalType": "uint256",
          "name": "amount",
          "type": "uint256"
        }
      ],
      "name": "transfer",
      "outputs": [
        {
          "internalType": "bool",
          "name": "",
          "type": "bool"
        }
      ],
      "stateMutability": "nonpayable",
      "type": "function"
    },
    {
      "inputs": [
        {
          "internalType": "address",
          "name": "from",
          "type": "address"
        },
        {
          "internalType": "address",
          "name": "to",
          "type": "address"
        },
        {
          "internalType": "uint256",
          "name": "amount",
          "type": "uint256"
        }
      ],
      "name": "transferFrom",
      "outputs": [
        {
          "internalType": "bool",
          "name": "",
          "type": "bool"
        }
      ],
      "stateMutability": "nonpayable",
      "type": "function"
    },
    {
      "inputs": [
        {
          "internalType": "address",
          "name": "newOwner",
          "type": "address"
        }
      ],
      "name": "transferOwnership",
      "outputs": [],
      "stateMutability": "nonpayable",
      "type": "function"
    },
    {
      "inputs": [
        {
          "internalType": "uint256",
          "name": "maxSupply",
          "type": "uint256"
        }
      ],
      "name": "updateMaxSupply",
      "outputs": [],
      "stateMutability": "nonpayable",
      "type": "function"
    },
    {
      "inputs": [
        {
          "internalType": "uint256",
          "name": "price",
          "type": "uint256"
        }
      ],
      "name": "updatePrice",
      "outputs": [],
      "stateMutability": "nonpayable",
      "type": "function"
    },
    {
      "inputs": [],
      "name": "withdrawProfits",
      "outputs": [],
      "stateMutability": "nonpayable",
      "type": "function"
    }
  ],
  "bytecode": "0x608060405266038d7ea4c680006008553480156200001c57600080fd5b50604051620016ab380380620016ab8339810160408190526200003f9162000422565b6040518060400160405280601481526020017f50726f6669742053686172696e6720546f6b656e000000000000000000000000815250604051806040016040528060038152602001621414d560ea1b8152508160039080519060200190620000a99291906200037c565b508051620000bf9060049060208401906200037c565b505050620000dc620000d6620001cc60201b60201c565b620001d0565b600160065580620001405760405162461bcd60e51b8152602060048201526024808201527f496e7469616c20737570706c79206d75737420626520677265617465722074686044820152630616e20360e41b60648201526084015b60405180910390fd5b808211620001a85760405162461bcd60e51b815260206004820152602e60248201527f4d617820737570706c79206d7573742062652067726561746572207468616e2060448201526d696e697469616c20737570706c7960901b606482015260840162000137565b6007829055620001b9338262000222565b620001c43362000307565b5050620004a8565b3390565b600580546001600160a01b038381166001600160a01b0319831681179093556040519116919082907f8be0079c531659141344cd1fd0a4f28419497f9722a3daafe3b4186f6b6457e090600090a35050565b6001600160a01b0382166200027a5760405162461bcd60e51b815260206004820152601f60248201527f45524332303a206d696e7420746f20746865207a65726f206164647265737300604482015260640162000137565b80600260008282546200028e919062000446565b90915550506001600160a01b03821660009081526020819052604081208054839290620002bd90849062000446565b90915550506040518181526001600160a01b038316906000907fddf252ad1be2c89b69c2b068fc378daa952ba7f163c4a11628f55a4df523b3ef9060200160405180910390a35050565b80600a60006200032360096200036f60201b620009351760201c565b815260200190815260200160002060006101000a8154816001600160a01b0302191690836001600160a01b031602179055506200036c60096200037360201b620009391760201c565b50565b5490565b80546001019055565b8280546200038a906200046b565b90600052602060002090601f016020900481019282620003ae5760008555620003f9565b82601f10620003c957805160ff1916838001178555620003f9565b82800160010185558215620003f9579182015b82811115620003f9578251825591602001919060010190620003dc565b50620004079291506200040b565b5090565b5b808211156200040757600081556001016200040c565b6000806040838503121562000435578182fd5b505080516020909101519092909150565b600082198211156200046657634e487b7160e01b81526011600452602481fd5b500190565b600181811c908216806200048057607f821691505b60208210811415620004a257634e487b7160e01b600052602260045260246000fd5b50919050565b6111f380620004b86000396000f3fe6080604052600436106101355760003560e01c8063715018a6116100ab578063a9059cbb1161006f578063a9059cbb1461032c578063dd62ed3e1461034c578063e7b69b9014610392578063e8b5e51f146103c8578063f103b433146103d0578063f2fde38b146103f057600080fd5b8063715018a61461029a5780638d6cc56d146102af5780638da5cb5b146102cf57806395d89b41146102f7578063a457c2d71461030c57600080fd5b8063313ce567116100fd578063313ce567146101de57806339509351146101fa57806339913e091461021a57806353d74fdf1461022f5780637065cb481461024457806370a082311461026457600080fd5b806306fdde031461013a578063095ea7b31461016557806318160ddd1461019557806323b872dd146101b457806326767cfe146101d4575b600080fd5b34801561014657600080fd5b5061014f610410565b60405161015c9190611072565b60405180910390f35b34801561017157600080fd5b50610185610180366004611031565b6104a2565b604051901515815260200161015c565b3480156101a157600080fd5b506002545b60405190815260200161015c565b3480156101c057600080fd5b506101856101cf366004610ff6565b6104ba565b6101dc6104de565b005b3480156101ea57600080fd5b506040516012815260200161015c565b34801561020657600080fd5b50610185610215366004611031565b610566565b34801561022657600080fd5b506101dc6105a5565b34801561023b57600080fd5b506101a6610629565b34801561025057600080fd5b506101dc61025f366004610faa565b610639565b34801561027057600080fd5b506101a661027f366004610faa565b6001600160a01b031660009081526020819052604090205490565b3480156102a657600080fd5b506101dc61066c565b3480156102bb57600080fd5b506101dc6102ca36600461105a565b6106a2565b3480156102db57600080fd5b506005546040516001600160a01b03909116815260200161015c565b34801561030357600080fd5b5061014f6106d1565b34801561031857600080fd5b50610185610327366004611031565b6106e0565b34801561033857600080fd5b50610185610347366004611031565b610772565b34801561035857600080fd5b506101a6610367366004610fc4565b6001600160a01b03918216600090815260016020908152604080832093909416825291909152205490565b34801561039e57600080fd5b506101a66103ad366004610faa565b6001600160a01b03166000908152600b602052604090205490565b6101dc610780565b3480156103dc57600080fd5b506101dc6103eb36600461105a565b61086e565b3480156103fc57600080fd5b506101dc61040b366004610faa565b61089d565b60606003805461041f90611151565b80601f016020809104026020016040519081016040528092919081815260200182805461044b90611151565b80156104985780601f1061046d57610100808354040283529160200191610498565b820191906000526020600020905b81548152906001019060200180831161047b57829003601f168201915b5050505050905090565b6000336104b0818585610942565b5060019392505050565b6000336104c8858285610a66565b6104d3858585610af8565b506001949350505050565b60005b600954811015610563576000818152600a60209081526040808320546001600160a01b031680845291839052822054909150600061053161052160025490565b61052b3485610cc6565b90610cd9565b6001600160a01b039093166000908152600b60205260409020929092555081905061055b8161118c565b9150506104e1565b50565b3360008181526001602090815260408083206001600160a01b03871684529091528120549091906104b090829086906105a09087906110fa565b610942565b600260065414156105fd5760405162461bcd60e51b815260206004820152601f60248201527f5265656e7472616e637947756172643a207265656e7472616e742063616c6c0060448201526064015b60405180910390fd5b6002600655336000818152600b602052604081208054919055906106219082610ce5565b506001600655565b600061063460095490565b905090565b6005546001600160a01b031633146106635760405162461bcd60e51b81526004016105f4906110c5565b61056381610e03565b6005546001600160a01b031633146106965760405162461bcd60e51b81526004016105f4906110c5565b6106a06000610e51565b565b6005546001600160a01b031633146106cc5760405162461bcd60e51b81526004016105f4906110c5565b600855565b60606004805461041f90611151565b3360008181526001602090815260408083206001600160a01b0387168452909152812054909190838110156107655760405162461bcd60e51b815260206004820152602560248201527f45524332303a2064656372656173656420616c6c6f77616e63652062656c6f77604482015264207a65726f60d81b60648201526084016105f4565b6104d38286868403610942565b6000336104b0818585610af8565b6008543410156107de5760405162461bcd60e51b8152602060048201526024808201527f4572726f722c20796f75206d75737420627579206174206c656173742031207460448201526337b5b2b760e11b60648201526084016105f4565b60006107f560085434610cd990919063ffffffff16565b905060075461080d8261080760025490565b90610ea3565b111561085b5760405162461bcd60e51b815260206004820181905260248201527f4572726f722c20696e73756666696369656e7420746f6b656e20737570706c7960448201526064016105f4565b6108653382610eaf565b61056333610e03565b6005546001600160a01b031633146108985760405162461bcd60e51b81526004016105f4906110c5565b600755565b6005546001600160a01b031633146108c75760405162461bcd60e51b81526004016105f4906110c5565b6001600160a01b03811661092c5760405162461bcd60e51b815260206004820152602660248201527f4f776e61626c653a206e6577206f776e657220697320746865207a65726f206160448201526564647265737360d01b60648201526084016105f4565b61056381610e51565b5490565b80546001019055565b6001600160a01b0383166109a45760405162461bcd60e51b8152602060048201526024808201527f45524332303a20617070726f76652066726f6d20746865207a65726f206164646044820152637265737360e01b60648201526084016105f4565b6001600160a01b038216610a055760405162461bcd60e51b815260206004820152602260248201527f45524332303a20617070726f766520746f20746865207a65726f206164647265604482015261737360f01b60648201526084016105f4565b6001600160a01b0383811660008181526001602090815260408083209487168084529482529182902085905590518481527f8c5be1e5ebec7d5bd14f71427d1e84f3dd0314c0f7b2291e5b200ac8c7c3b925910160405180910390a3505050565b6001600160a01b038381166000908152600160209081526040808320938616835292905220546000198114610af25781811015610ae55760405162461bcd60e51b815260206004820152601d60248201527f45524332303a20696e73756666696369656e7420616c6c6f77616e636500000060448201526064016105f4565b610af28484848403610942565b50505050565b6001600160a01b038316610b5c5760405162461bcd60e51b815260206004820152602560248201527f45524332303a207472616e736665722066726f6d20746865207a65726f206164604482015264647265737360d81b60648201526084016105f4565b6001600160a01b038216610bbe5760405162461bcd60e51b815260206004820152602360248201527f45524332303a207472616e7366657220746f20746865207a65726f206164647260448201526265737360e81b60648201526084016105f4565b6001600160a01b03831660009081526020819052604090205481811015610c365760405162461bcd60e51b815260206004820152602660248201527f45524332303a207472616e7366657220616d6f756e7420657863656564732062604482015265616c616e636560d01b60648201526084016105f4565b6001600160a01b03808516600090815260208190526040808220858503905591851681529081208054849290610c6d9084906110fa565b92505081905550826001600160a01b0316846001600160a01b03167fddf252ad1be2c89b69c2b068fc378daa952ba7f163c4a11628f55a4df523b3ef84604051610cb991815260200190565b60405180910390a3610af2565b6000610cd28284611132565b9392505050565b6000610cd28284611112565b80471015610d355760405162461bcd60e51b815260206004820152601d60248201527f416464726573733a20696e73756666696369656e742062616c616e636500000060448201526064016105f4565b6000826001600160a01b03168260405160006040518083038185875af1925050503d8060008114610d82576040519150601f19603f3d011682016040523d82523d6000602084013e610d87565b606091505b5050905080610dfe5760405162461bcd60e51b815260206004820152603a60248201527f416464726573733a20756e61626c6520746f2073656e642076616c75652c207260448201527f6563697069656e74206d6179206861766520726576657274656400000000000060648201526084016105f4565b505050565b80600a6000610e1160095490565b815260200190815260200160002060006101000a8154816001600160a01b0302191690836001600160a01b03160217905550610563600980546001019055565b600580546001600160a01b038381166001600160a01b0319831681179093556040519116919082907f8be0079c531659141344cd1fd0a4f28419497f9722a3daafe3b4186f6b6457e090600090a35050565b6000610cd282846110fa565b6001600160a01b038216610f055760405162461bcd60e51b815260206004820152601f60248201527f45524332303a206d696e7420746f20746865207a65726f20616464726573730060448201526064016105f4565b8060026000828254610f1791906110fa565b90915550506001600160a01b03821660009081526020819052604081208054839290610f449084906110fa565b90915550506040518181526001600160a01b038316906000907fddf252ad1be2c89b69c2b068fc378daa952ba7f163c4a11628f55a4df523b3ef9060200160405180910390a35050565b80356001600160a01b0381168114610fa557600080fd5b919050565b600060208284031215610fbb578081fd5b610cd282610f8e565b60008060408385031215610fd6578081fd5b610fdf83610f8e565b9150610fed60208401610f8e565b90509250929050565b60008060006060848603121561100a578081fd5b61101384610f8e565b925061102160208501610f8e565b9150604084013590509250925092565b60008060408385031215611043578182fd5b61104c83610f8e565b946020939093013593505050565b60006020828403121561106b578081fd5b5035919050565b6000602080835283518082850152825b8181101561109e57858101830151858201604001528201611082565b818111156110af5783604083870101525b50601f01601f1916929092016040019392505050565b6020808252818101527f4f776e61626c653a2063616c6c6572206973206e6f7420746865206f776e6572604082015260600190565b6000821982111561110d5761110d6111a7565b500190565b60008261112d57634e487b7160e01b81526012600452602481fd5b500490565b600081600019048311821515161561114c5761114c6111a7565b500290565b600181811c9082168061116557607f821691505b6020821081141561118657634e487b7160e01b600052602260045260246000fd5b50919050565b60006000198214156111a0576111a06111a7565b5060010190565b634e487b7160e01b600052601160045260246000fdfea264697066735822122098b37c446ec0a399672e9406efb3efac27f12b78179c7a188660bbe7fb1a897d64736f6c63430008040033",
  "linkReferences": {},
  "deployedLinkReferences": {}
}