{
  "_format": "hh-sol-artifact-1",
  "contractName": "AccessToken",
  "sourceName": "contracts/AccessToken.sol",
  "abi": [
    {
      "inputs": [
        {
          "internalType": "string",
          "name": "_name",
          "type": "string"
        },
        {
          "internalType": "string",
          "name": "_baseUri",
          "type": "string"
        }
      ],
      "stateMutability": "nonpayable",
      "type": "constructor"
    },
    {
      "anonymous": false,
      "inputs": [
        {
          "indexed": true,
          "internalType": "address",
          "name": "account",
          "type": "address"
        },
        {
          "indexed": true,
          "internalType": "address",
          "name": "operator",
          "type": "address"
        },
        {
          "indexed": false,
          "internalType": "bool",
          "name": "approved",
          "type": "bool"
        }
      ],
      "name": "ApprovalForAll",
      "type": "event"
    },
    {
      "anonymous": false,
      "inputs": [
        {
          "indexed": true,
          "internalType": "address",
          "name": "previousOwner",
          "type": "address"
        },
        {
          "indexed": true,
          "internalType": "address",
          "name": "newOwner",
          "type": "address"
        }
      ],
      "name": "OwnershipTransferred",
      "type": "event"
    },
    {
      "anonymous": false,
      "inputs": [
        {
          "indexed": true,
          "internalType": "address",
          "name": "operator",
          "type": "address"
        },
        {
          "indexed": true,
          "internalType": "address",
          "name": "from",
          "type": "address"
        },
        {
          "indexed": true,
          "internalType": "address",
          "name": "to",
          "type": "address"
        },
        {
          "indexed": false,
          "internalType": "uint256[]",
          "name": "ids",
          "type": "uint256[]"
        },
        {
          "indexed": false,
          "internalType": "uint256[]",
          "name": "values",
          "type": "uint256[]"
        }
      ],
      "name": "TransferBatch",
      "type": "event"
    },
    {
      "anonymous": false,
      "inputs": [
        {
          "indexed": true,
          "internalType": "address",
          "name": "operator",
          "type": "address"
        },
        {
          "indexed": true,
          "internalType": "address",
          "name": "from",
          "type": "address"
        },
        {
          "indexed": true,
          "internalType": "address",
          "name": "to",
          "type": "address"
        },
        {
          "indexed": false,
          "internalType": "uint256",
          "name": "id",
          "type": "uint256"
        },
        {
          "indexed": false,
          "internalType": "uint256",
          "name": "value",
          "type": "uint256"
        }
      ],
      "name": "TransferSingle",
      "type": "event"
    },
    {
      "anonymous": false,
      "inputs": [
        {
          "indexed": false,
          "internalType": "string",
          "name": "value",
          "type": "string"
        },
        {
          "indexed": true,
          "internalType": "uint256",
          "name": "id",
          "type": "uint256"
        }
      ],
      "name": "URI",
      "type": "event"
    },
    {
      "inputs": [],
      "name": "NUMBER_RESERVED_TOKENS",
      "outputs": [
        {
          "internalType": "uint256",
          "name": "",
          "type": "uint256"
        }
      ],
      "stateMutability": "view",
      "type": "function"
    },
    {
      "inputs": [],
      "name": "PRICE",
      "outputs": [
        {
          "internalType": "uint256",
          "name": "",
          "type": "uint256"
        }
      ],
      "stateMutability": "view",
      "type": "function"
    },
    {
      "inputs": [
        {
          "internalType": "address",
          "name": "account",
          "type": "address"
        },
        {
          "internalType": "uint256",
          "name": "id",
          "type": "uint256"
        }
      ],
      "name": "balanceOf",
      "outputs": [
        {
          "internalType": "uint256",
          "name": "",
          "type": "uint256"
        }
      ],
      "stateMutability": "view",
      "type": "function"
    },
    {
      "inputs": [
        {
          "internalType": "address[]",
          "name": "accounts",
          "type": "address[]"
        },
        {
          "internalType": "uint256[]",
          "name": "ids",
          "type": "uint256[]"
        }
      ],
      "name": "balanceOfBatch",
      "outputs": [
        {
          "internalType": "uint256[]",
          "name": "",
          "type": "uint256[]"
        }
      ],
      "stateMutability": "view",
      "type": "function"
    },
    {
      "inputs": [],
      "name": "baseUri",
      "outputs": [
        {
          "internalType": "string",
          "name": "",
          "type": "string"
        }
      ],
      "stateMutability": "view",
      "type": "function"
    },
    {
      "inputs": [
        {
          "internalType": "uint256",
          "name": "_maxPerTransaction",
          "type": "uint256"
        },
        {
          "internalType": "uint256",
          "name": "_maxPerWallet",
          "type": "uint256"
        },
        {
          "internalType": "uint256",
          "name": "_maxSupply",
          "type": "uint256"
        }
      ],
      "name": "changeSaleDetails",
      "outputs": [],
      "stateMutability": "nonpayable",
      "type": "function"
    },
    {
      "inputs": [
        {
          "internalType": "uint256",
          "name": "id",
          "type": "uint256"
        }
      ],
      "name": "exists",
      "outputs": [
        {
          "internalType": "bool",
          "name": "",
          "type": "bool"
        }
      ],
      "stateMutability": "view",
      "type": "function"
    },
    {
      "inputs": [],
      "name": "flipSaleState",
      "outputs": [],
      "stateMutability": "nonpayable",
      "type": "function"
    },
    {
      "inputs": [
        {
          "internalType": "address",
          "name": "account",
          "type": "address"
        },
        {
          "internalType": "address",
          "name": "operator",
          "type": "address"
        }
      ],
      "name": "isApprovedForAll",
      "outputs": [
        {
          "internalType": "bool",
          "name": "",
          "type": "bool"
        }
      ],
      "stateMutability": "view",
      "type": "function"
    },
    {
      "inputs": [],
      "name": "maxPerTransaction",
      "outputs": [
        {
          "internalType": "uint256",
          "name": "",
          "type": "uint256"
        }
      ],
      "stateMutability": "view",
      "type": "function"
    },
    {
      "inputs": [],
      "name": "maxPerWallet",
      "outputs": [
        {
          "internalType": "uint256",
          "name": "",
          "type": "uint256"
        }
      ],
      "stateMutability": "view",
      "type": "function"
    },
    {
      "inputs": [],
      "name": "maxSupply",
      "outputs": [
        {
          "internalType": "uint256",
          "name": "",
          "type": "uint256"
        }
      ],
      "stateMutability": "view",
      "type": "function"
    },
    {
      "inputs": [
        {
          "internalType": "address",
          "name": "_to",
          "type": "address"
        },
        {
          "internalType": "uint256",
          "name": "_tokenId",
          "type": "uint256"
        },
        {
          "internalType": "uint256",
          "name": "_amount",
          "type": "uint256"
        }
      ],
      "name": "mintReservedTokens",
      "outputs": [],
      "stateMutability": "nonpayable",
      "type": "function"
    },
    {
      "inputs": [
        {
          "internalType": "uint256",
          "name": "_tokenId",
          "type": "uint256"
        },
        {
          "internalType": "uint256",
          "name": "_amount",
          "type": "uint256"
        }
      ],
      "name": "mintToken",
      "outputs": [],
      "stateMutability": "payable",
      "type": "function"
    },
    {
      "inputs": [],
      "name": "name",
      "outputs": [
        {
          "internalType": "string",
          "name": "",
          "type": "string"
        }
      ],
      "stateMutability": "view",
      "type": "function"
    },
    {
      "inputs": [],
      "name": "owner",
      "outputs": [
        {
          "internalType": "address",
          "name": "",
          "type": "address"
        }
      ],
      "stateMutability": "view",
      "type": "function"
    },
    {
      "inputs": [],
      "name": "renounceOwnership",
      "outputs": [],
      "stateMutability": "nonpayable",
      "type": "function"
    },
    {
      "inputs": [],
      "name": "reservedTokensMinted",
      "outputs": [
        {
          "internalType": "uint256",
          "name": "",
          "type": "uint256"
        }
      ],
      "stateMutability": "view",
      "type": "function"
    },
    {
      "inputs": [
        {
          "internalType": "address",
          "name": "from",
          "type": "address"
        },
        {
          "internalType": "address",
          "name": "to",
          "type": "address"
        },
        {
          "internalType": "uint256[]",
          "name": "ids",
          "type": "uint256[]"
        },
        {
          "internalType": "uint256[]",
          "name": "amounts",
          "type": "uint256[]"
        },
        {
          "internalType": "bytes",
          "name": "data",
          "type": "bytes"
        }
      ],
      "name": "safeBatchTransferFrom",
      "outputs": [],
      "stateMutability": "nonpayable",
      "type": "function"
    },
    {
      "inputs": [
        {
          "internalType": "address",
          "name": "from",
          "type": "address"
        },
        {
          "internalType": "address",
          "name": "to",
          "type": "address"
        },
        {
          "internalType": "uint256",
          "name": "id",
          "type": "uint256"
        },
        {
          "internalType": "uint256",
          "name": "amount",
          "type": "uint256"
        },
        {
          "internalType": "bytes",
          "name": "data",
          "type": "bytes"
        }
      ],
      "name": "safeTransferFrom",
      "outputs": [],
      "stateMutability": "nonpayable",
      "type": "function"
    },
    {
      "inputs": [],
      "name": "saleIsActive",
      "outputs": [
        {
          "internalType": "bool",
          "name": "",
          "type": "bool"
        }
      ],
      "stateMutability": "view",
      "type": "function"
    },
    {
      "inputs": [
        {
          "internalType": "address",
          "name": "operator",
          "type": "address"
        },
        {
          "internalType": "bool",
          "name": "approved",
          "type": "bool"
        }
      ],
      "name": "setApprovalForAll",
      "outputs": [],
      "stateMutability": "nonpayable",
      "type": "function"
    },
    {
      "inputs": [
        {
          "internalType": "bytes4",
          "name": "interfaceId",
          "type": "bytes4"
        }
      ],
      "name": "supportsInterface",
      "outputs": [
        {
          "internalType": "bool",
          "name": "",
          "type": "bool"
        }
      ],
      "stateMutability": "view",
      "type": "function"
    },
    {
      "inputs": [],
      "name": "tokenId",
      "outputs": [
        {
          "internalType": "uint256",
          "name": "",
          "type": "uint256"
        }
      ],
      "stateMutability": "view",
      "type": "function"
    },
    {
      "inputs": [
        {
          "internalType": "uint256",
          "name": "id",
          "type": "uint256"
        }
      ],
      "name": "totalSupply",
      "outputs": [
        {
          "internalType": "uint256",
          "name": "",
          "type": "uint256"
        }
      ],
      "stateMutability": "view",
      "type": "function"
    },
    {
      "inputs": [
        {
          "internalType": "address",
          "name": "newOwner",
          "type": "address"
        }
      ],
      "name": "transferOwnership",
      "outputs": [],
      "stateMutability": "nonpayable",
      "type": "function"
    },
    {
      "inputs": [
        {
          "internalType": "uint256",
          "name": "",
          "type": "uint256"
        }
      ],
      "name": "uri",
      "outputs": [
        {
          "internalType": "string",
          "name": "",
          "type": "string"
        }
      ],
      "stateMutability": "view",
      "type": "function"
    }
  ],
  "bytecode": "0x60806040526008805460ff1916905560016009819055600a556105a4600b556000600c553480156200003057600080fd5b50604051620023c9380380620023c9833981016040819052620000539162000263565b806200005f816200009f565b506200006b33620000b8565b8151620000809060059060208501906200010a565b508051620000969060069060208401906200010a565b5050506200031d565b8051620000b49060029060208401906200010a565b5050565b600480546001600160a01b038381166001600160a01b0319831681179093556040519116919082907f8be0079c531659141344cd1fd0a4f28419497f9722a3daafe3b4186f6b6457e090600090a35050565b8280546200011890620002ca565b90600052602060002090601f0160209004810192826200013c576000855562000187565b82601f106200015757805160ff191683800117855562000187565b8280016001018555821562000187579182015b82811115620001875782518255916020019190600101906200016a565b506200019592915062000199565b5090565b5b808211156200019557600081556001016200019a565b600082601f830112620001c1578081fd5b81516001600160401b0380821115620001de57620001de62000307565b604051601f8301601f19908116603f0116810190828211818310171562000209576200020962000307565b8160405283815260209250868385880101111562000225578485fd5b8491505b8382101562000248578582018301518183018401529082019062000229565b838211156200025957848385830101525b9695505050505050565b6000806040838503121562000276578182fd5b82516001600160401b03808211156200028d578384fd5b6200029b86838701620001b0565b93506020850151915080821115620002b1578283fd5b50620002c085828601620001b0565b9150509250929050565b600181811c90821680620002df57607f821691505b602082108114156200030157634e487b7160e01b600052602260045260246000fd5b50919050565b634e487b7160e01b600052604160045260246000fd5b61209c806200032d6000396000f3fe60806040526004361061019b5760003560e01c8063715018a6116100ec578063bd85b0391161008a578063eb8d244411610064578063eb8d24441461049c578063f242432a146104b6578063f2fde38b146104d6578063f3e38821146104f657600080fd5b8063bd85b03914610410578063d5abeb011461043d578063e985e9c51461045357600080fd5b80639018f64c116100c65780639018f64c146103a65780639abc8320146103c6578063a22cb465146103db578063b22edfbc146103fb57600080fd5b8063715018a61461034d5780638d859f3e146103625780638da5cb5b1461037e57600080fd5b80632da925f011610159578063453c231011610133578063453c2310146102c55780634b980d67146102db5780634e1273f4146102f15780634f558e791461031e57600080fd5b80632da925f0146102705780632eb2c2d61461029057806334918dfd146102b057600080fd5b8062fdd58e146101a057806301ffc9a7146101d357806306fdde03146102035780630e89341c1461022557806317d70f7c1461024557806320cbf5f91461025b575b600080fd5b3480156101ac57600080fd5b506101c06101bb366004611a43565b61050c565b6040519081526020015b60405180910390f35b3480156101df57600080fd5b506101f36101ee366004611b69565b6105a3565b60405190151581526020016101ca565b34801561020f57600080fd5b506102186105f5565b6040516101ca9190611d6e565b34801561023157600080fd5b50610218610240366004611ba1565b610683565b34801561025157600080fd5b506101c060075481565b61026e610269366004611bb9565b610717565b005b34801561027c57600080fd5b5061026e61028b366004611a6c565b6109c7565b34801561029c57600080fd5b5061026e6102ab366004611900565b610a8c565b3480156102bc57600080fd5b5061026e610b23565b3480156102d157600080fd5b506101c0600a5481565b3480156102e757600080fd5b506101c060095481565b3480156102fd57600080fd5b5061031161030c366004611a9e565b610b61565b6040516101ca9190611d2d565b34801561032a57600080fd5b506101f3610339366004611ba1565b600090815260036020526040902054151590565b34801561035957600080fd5b5061026e610cc3565b34801561036e57600080fd5b506101c06703782dace9d9000081565b34801561038a57600080fd5b506004546040516001600160a01b0390911681526020016101ca565b3480156103b257600080fd5b5061026e6103c1366004611bda565b610cf9565b3480156103d257600080fd5b50610218610d3b565b3480156103e757600080fd5b5061026e6103f6366004611a09565b610d48565b34801561040757600080fd5b506101c0606481565b34801561041c57600080fd5b506101c061042b366004611ba1565b60009081526003602052604090205490565b34801561044957600080fd5b506101c0600b5481565b34801561045f57600080fd5b506101f361046e3660046118ce565b6001600160a01b03918216600090815260016020908152604080832093909416825291909152205460ff1690565b3480156104a857600080fd5b506008546101f39060ff1681565b3480156104c257600080fd5b5061026e6104d13660046119a6565b610d53565b3480156104e257600080fd5b5061026e6104f13660046118ad565b610dda565b34801561050257600080fd5b506101c0600c5481565b60006001600160a01b03831661057d5760405162461bcd60e51b815260206004820152602b60248201527f455243313135353a2062616c616e636520717565727920666f7220746865207a60448201526a65726f206164647265737360a81b60648201526084015b60405180910390fd5b506000908152602081815260408083206001600160a01b03949094168352929052205490565b60006001600160e01b03198216636cdb3d1360e11b14806105d457506001600160e01b031982166303a24d0760e21b145b806105ef57506301ffc9a760e01b6001600160e01b03198316145b92915050565b6005805461060290611eff565b80601f016020809104026020016040519081016040528092919081815260200182805461062e90611eff565b801561067b5780601f106106505761010080835404028352916020019161067b565b820191906000526020600020905b81548152906001019060200180831161065e57829003601f168201915b505050505081565b60606002805461069290611eff565b80601f01602080910402602001604051908101604052809291908181526020018280546106be90611eff565b801561070b5780601f106106e05761010080835404028352916020019161070b565b820191906000526020600020905b8154815290600101906020018083116106ee57829003601f168201915b50505050509050919050565b3332146107725760405162461bcd60e51b8152602060048201526024808201527f4e6f207472616e73616374696f6e2066726f6d20736d61727420636f6e7472616044820152636374732160e01b6064820152608401610574565b60085460ff166107c45760405162461bcd60e51b815260206004820152601b60248201527f53616c65206d7573742062652061637469766520746f206d696e7400000000006044820152606401610574565b6000811180156107d657506009548111155b6108385760405162461bcd60e51b815260206004820152602d60248201527f4d617820706572207472616e73616374696f6e20726561636865642c2073616c60448201526c19481b9bdd08185b1b1bddd959609a1b6064820152608401610574565b600a5481610846338561050c565b6108509190611eb1565b11156108c45760405162461bcd60e51b815260206004820152603b60248201527f4c696d6974207065722077616c6c65742072656163686564207769746820746860448201527f697320616d6f756e742c2073616c65206e6f7420616c6c6f77656400000000006064820152608401610574565b600c546108d2906064611ee8565b600b546108df9190611ee8565b6000838152600360205260409020546108f9908390611eb1565b11156109475760405162461bcd60e51b815260206004820181905260248201527f507572636861736520776f756c6420657863656564206d617820737570706c796044820152606401610574565b610959816703782dace9d90000611ec9565b3410156109a85760405162461bcd60e51b815260206004820152601e60248201527f4e6f7420656e6f7567682045544820666f72207472616e73616374696f6e00006044820152606401610574565b6109c333838360405180602001604052806000815250610e75565b5050565b6004546001600160a01b031633146109f15760405162461bcd60e51b815260040161057490611e58565b606481600c54610a019190611eb1565b1115610a5b5760405162461bcd60e51b8152602060048201526024808201527f5468697320616d6f756e74206973206d6f7265207468616e206d617820616c6c6044820152631bddd95960e21b6064820152608401610574565b610a7683838360405180602001604052806000815250610e75565b80600c54610a849190611eb1565b600c55505050565b6001600160a01b038516331480610aa85750610aa8853361046e565b610b0f5760405162461bcd60e51b815260206004820152603260248201527f455243313135353a207472616e736665722063616c6c6572206973206e6f74206044820152711bdddb995c881b9bdc88185c1c1c9bdd995960721b6064820152608401610574565b610b1c8585858585610f85565b5050505050565b6004546001600160a01b03163314610b4d5760405162461bcd60e51b815260040161057490611e58565b6008805460ff19811660ff90911615179055565b60608151835114610bc65760405162461bcd60e51b815260206004820152602960248201527f455243313135353a206163636f756e747320616e6420696473206c656e677468604482015268040dad2e6dac2e8c6d60bb1b6064820152608401610574565b6000835167ffffffffffffffff811115610bf057634e487b7160e01b600052604160045260246000fd5b604051908082528060200260200182016040528015610c19578160200160208202803683370190505b50905060005b8451811015610cbb57610c80858281518110610c4b57634e487b7160e01b600052603260045260246000fd5b6020026020010151858381518110610c7357634e487b7160e01b600052603260045260246000fd5b602002602001015161050c565b828281518110610ca057634e487b7160e01b600052603260045260246000fd5b6020908102919091010152610cb481611f67565b9050610c1f565b509392505050565b6004546001600160a01b03163314610ced5760405162461bcd60e51b815260040161057490611e58565b610cf7600061118c565b565b6004546001600160a01b03163314610d235760405162461bcd60e51b815260040161057490611e58565b600992909255600a55600b556008805460ff19169055565b6006805461060290611eff565b6109c33383836111de565b6001600160a01b038516331480610d6f5750610d6f853361046e565b610dcd5760405162461bcd60e51b815260206004820152602960248201527f455243313135353a2063616c6c6572206973206e6f74206f776e6572206e6f7260448201526808185c1c1c9bdd995960ba1b6064820152608401610574565b610b1c85858585856112bf565b6004546001600160a01b03163314610e045760405162461bcd60e51b815260040161057490611e58565b6001600160a01b038116610e695760405162461bcd60e51b815260206004820152602660248201527f4f776e61626c653a206e6577206f776e657220697320746865207a65726f206160448201526564647265737360d01b6064820152608401610574565b610e728161118c565b50565b6001600160a01b038416610ed55760405162461bcd60e51b815260206004820152602160248201527f455243313135353a206d696e7420746f20746865207a65726f206164647265736044820152607360f81b6064820152608401610574565b33610ef581600087610ee6886113dc565b610eef886113dc565b87611435565b6000848152602081815260408083206001600160a01b038916845290915281208054859290610f25908490611eb1565b909155505060408051858152602081018590526001600160a01b0380881692600092918516917fc3d58168c5ae7397731d063d5bbf3d657854427343f4c083240f7aacaa2d0f62910160405180910390a4610b1c81600087878787611579565b8151835114610fe75760405162461bcd60e51b815260206004820152602860248201527f455243313135353a2069647320616e6420616d6f756e7473206c656e677468206044820152670dad2e6dac2e8c6d60c31b6064820152608401610574565b6001600160a01b03841661100d5760405162461bcd60e51b815260040161057490611dc9565b3361101c818787878787611435565b60005b845181101561111e57600085828151811061104a57634e487b7160e01b600052603260045260246000fd5b60200260200101519050600085838151811061107657634e487b7160e01b600052603260045260246000fd5b602090810291909101810151600084815280835260408082206001600160a01b038e1683529093529190912054909150818110156110c65760405162461bcd60e51b815260040161057490611e0e565b6000838152602081815260408083206001600160a01b038e8116855292528083208585039055908b16825281208054849290611103908490611eb1565b925050819055505050508061111790611f67565b905061101f565b50846001600160a01b0316866001600160a01b0316826001600160a01b03167f4a39dc06d4c0dbc64b70af90fd698a233a518aa5d07e595d983b8c0526c8f7fb878760405161116e929190611d40565b60405180910390a46111848187878787876116e4565b505050505050565b600480546001600160a01b038381166001600160a01b0319831681179093556040519116919082907f8be0079c531659141344cd1fd0a4f28419497f9722a3daafe3b4186f6b6457e090600090a35050565b816001600160a01b0316836001600160a01b031614156112525760405162461bcd60e51b815260206004820152602960248201527f455243313135353a2073657474696e6720617070726f76616c20737461747573604482015268103337b91039b2b63360b91b6064820152608401610574565b6001600160a01b03838116600081815260016020908152604080832094871680845294825291829020805460ff191686151590811790915591519182527f17307eab39ab6107e8899845ad3d59bd9653f200f220920489ca2b5937696c31910160405180910390a3505050565b6001600160a01b0384166112e55760405162461bcd60e51b815260040161057490611dc9565b336112f5818787610ee6886113dc565b6000848152602081815260408083206001600160a01b038a168452909152902054838110156113365760405162461bcd60e51b815260040161057490611e0e565b6000858152602081815260408083206001600160a01b038b8116855292528083208785039055908816825281208054869290611373908490611eb1565b909155505060408051868152602081018690526001600160a01b03808916928a821692918616917fc3d58168c5ae7397731d063d5bbf3d657854427343f4c083240f7aacaa2d0f62910160405180910390a46113d3828888888888611579565b50505050505050565b6040805160018082528183019092526060916000919060208083019080368337019050509050828160008151811061142457634e487b7160e01b600052603260045260246000fd5b602090810291909101015292915050565b6001600160a01b0385166114d85760005b83518110156114d65782818151811061146f57634e487b7160e01b600052603260045260246000fd5b60200260200101516003600086848151811061149b57634e487b7160e01b600052603260045260246000fd5b6020026020010151815260200190815260200160002060008282546114c09190611eb1565b909155506114cf905081611f67565b9050611446565b505b6001600160a01b0384166111845760005b83518110156113d35782818151811061151257634e487b7160e01b600052603260045260246000fd5b60200260200101516003600086848151811061153e57634e487b7160e01b600052603260045260246000fd5b6020026020010151815260200190815260200160002060008282546115639190611ee8565b90915550611572905081611f67565b90506114e9565b6001600160a01b0384163b156111845760405163f23a6e6160e01b81526001600160a01b0385169063f23a6e61906115bd9089908990889088908890600401611ce8565b602060405180830381600087803b1580156115d757600080fd5b505af1925050508015611607575060408051601f3d908101601f1916820190925261160491810190611b85565b60015b6116b457611613611fae565b806308c379a0141561164d5750611628611fc6565b80611633575061164f565b8060405162461bcd60e51b81526004016105749190611d6e565b505b60405162461bcd60e51b815260206004820152603460248201527f455243313135353a207472616e7366657220746f206e6f6e20455243313135356044820152732932b1b2b4bb32b91034b6b83632b6b2b73a32b960611b6064820152608401610574565b6001600160e01b0319811663f23a6e6160e01b146113d35760405162461bcd60e51b815260040161057490611d81565b6001600160a01b0384163b156111845760405163bc197c8160e01b81526001600160a01b0385169063bc197c81906117289089908990889088908890600401611c8a565b602060405180830381600087803b15801561174257600080fd5b505af1925050508015611772575060408051601f3d908101601f1916820190925261176f91810190611b85565b60015b61177e57611613611fae565b6001600160e01b0319811663bc197c8160e01b146113d35760405162461bcd60e51b815260040161057490611d81565b80356001600160a01b03811681146117c557600080fd5b919050565b600082601f8301126117da578081fd5b813560206117e782611e8d565b6040516117f48282611f3a565b8381528281019150858301600585901b87018401881015611813578586fd5b855b8581101561183157813584529284019290840190600101611815565b5090979650505050505050565b600082601f83011261184e578081fd5b813567ffffffffffffffff81111561186857611868611f98565b60405161187f601f8301601f191660200182611f3a565b818152846020838601011115611893578283fd5b816020850160208301379081016020019190915292915050565b6000602082840312156118be578081fd5b6118c7826117ae565b9392505050565b600080604083850312156118e0578081fd5b6118e9836117ae565b91506118f7602084016117ae565b90509250929050565b600080600080600060a08688031215611917578081fd5b611920866117ae565b945061192e602087016117ae565b9350604086013567ffffffffffffffff8082111561194a578283fd5b61195689838a016117ca565b9450606088013591508082111561196b578283fd5b61197789838a016117ca565b9350608088013591508082111561198c578283fd5b506119998882890161183e565b9150509295509295909350565b600080600080600060a086880312156119bd578081fd5b6119c6866117ae565b94506119d4602087016117ae565b93506040860135925060608601359150608086013567ffffffffffffffff8111156119fd578182fd5b6119998882890161183e565b60008060408385031215611a1b578182fd5b611a24836117ae565b915060208301358015158114611a38578182fd5b809150509250929050565b60008060408385031215611a55578182fd5b611a5e836117ae565b946020939093013593505050565b600080600060608486031215611a80578283fd5b611a89846117ae565b95602085013595506040909401359392505050565b60008060408385031215611ab0578182fd5b823567ffffffffffffffff80821115611ac7578384fd5b818501915085601f830112611ada578384fd5b81356020611ae782611e8d565b604051611af48282611f3a565b8381528281019150858301600585901b870184018b1015611b13578889fd5b8896505b84871015611b3c57611b28816117ae565b835260019690960195918301918301611b17565b5096505086013592505080821115611b52578283fd5b50611b5f858286016117ca565b9150509250929050565b600060208284031215611b7a578081fd5b81356118c781612050565b600060208284031215611b96578081fd5b81516118c781612050565b600060208284031215611bb2578081fd5b5035919050565b60008060408385031215611bcb578182fd5b50508035926020909101359150565b600080600060608486031215611bee578081fd5b505081359360208301359350604090920135919050565b6000815180845260208085019450808401835b83811015611c3457815187529582019590820190600101611c18565b509495945050505050565b60008151808452815b81811015611c6457602081850181015186830182015201611c48565b81811115611c755782602083870101525b50601f01601f19169290920160200192915050565b6001600160a01b0386811682528516602082015260a060408201819052600090611cb690830186611c05565b8281036060840152611cc88186611c05565b90508281036080840152611cdc8185611c3f565b98975050505050505050565b6001600160a01b03868116825285166020820152604081018490526060810183905260a060808201819052600090611d2290830184611c3f565b979650505050505050565b6020815260006118c76020830184611c05565b604081526000611d536040830185611c05565b8281036020840152611d658185611c05565b95945050505050565b6020815260006118c76020830184611c3f565b60208082526028908201527f455243313135353a204552433131353552656365697665722072656a656374656040820152676420746f6b656e7360c01b606082015260800190565b60208082526025908201527f455243313135353a207472616e7366657220746f20746865207a65726f206164604082015264647265737360d81b606082015260800190565b6020808252602a908201527f455243313135353a20696e73756666696369656e742062616c616e636520666f60408201526939103a3930b739b332b960b11b606082015260800190565b6020808252818101527f4f776e61626c653a2063616c6c6572206973206e6f7420746865206f776e6572604082015260600190565b600067ffffffffffffffff821115611ea757611ea7611f98565b5060051b60200190565b60008219821115611ec457611ec4611f82565b500190565b6000816000190483118215151615611ee357611ee3611f82565b500290565b600082821015611efa57611efa611f82565b500390565b600181811c90821680611f1357607f821691505b60208210811415611f3457634e487b7160e01b600052602260045260246000fd5b50919050565b601f8201601f1916810167ffffffffffffffff81118282101715611f6057611f60611f98565b6040525050565b6000600019821415611f7b57611f7b611f82565b5060010190565b634e487b7160e01b600052601160045260246000fd5b634e487b7160e01b600052604160045260246000fd5b600060033d1115611fc357600481823e5160e01c5b90565b600060443d1015611fd45790565b6040516003193d81016004833e81513d67ffffffffffffffff816024840111818411171561200457505050505090565b828501915081518181111561201c5750505050505090565b843d87010160208285010111156120365750505050505090565b61204560208286010187611f3a565b509095945050505050565b6001600160e01b031981168114610e7257600080fdfea2646970667358221220b4edec5e0abc82d82de40a69dfa36cd5a828f217fa2b1cb840de5aa4d50f3ba064736f6c63430008040033",
  "linkReferences": {},
  "deployedLinkReferences": {}
}