{
  "_format": "hh-sol-artifact-1",
  "contractName": "ProductFactory",
  "sourceName": "contracts/ProductFactory.sol",
  "abi": [
    {
      "inputs": [
        {
          "internalType": "address",
          "name": "_profitSharingToken",
          "type": "address"
        }
      ],
      "stateMutability": "nonpayable",
      "type": "constructor"
    },
    {
      "inputs": [
        {
          "internalType": "string",
          "name": "tokenUri",
          "type": "string"
        },
        {
          "internalType": "string",
          "name": "slug",
          "type": "string"
        },
        {
          "internalType": "address payable",
          "name": "seller",
          "type": "address"
        },
        {
          "internalType": "uint256",
          "name": "price",
          "type": "uint256"
        },
        {
          "internalType": "uint256",
          "name": "supply",
          "type": "uint256"
        }
      ],
      "name": "create",
      "outputs": [
        {
          "internalType": "address",
          "name": "",
          "type": "address"
        }
      ],
      "stateMutability": "nonpayable",
      "type": "function"
    },
    {
      "inputs": [
        {
          "internalType": "address",
          "name": "_seller",
          "type": "address"
        },
        {
          "internalType": "string",
          "name": "_slug",
          "type": "string"
        }
      ],
      "name": "fetchProductBySlug",
      "outputs": [
        {
          "internalType": "address",
          "name": "",
          "type": "address"
        }
      ],
      "stateMutability": "view",
      "type": "function"
    },
    {
      "inputs": [],
      "name": "fetchProducts",
      "outputs": [
        {
          "internalType": "address[]",
          "name": "",
          "type": "address[]"
        }
      ],
      "stateMutability": "view",
      "type": "function"
    },
    {
      "inputs": [
        {
          "internalType": "address",
          "name": "_seller",
          "type": "address"
        }
      ],
      "name": "fetchSellerProducts",
      "outputs": [
        {
          "internalType": "address[]",
          "name": "",
          "type": "address[]"
        }
      ],
      "stateMutability": "view",
      "type": "function"
    }
  ],
  "bytecode": "0x608060405234801561001057600080fd5b50604051612b60380380612b6083398101604081905261002f91610054565b600080546001600160a01b0319166001600160a01b0392909216919091179055610082565b600060208284031215610065578081fd5b81516001600160a01b038116811461007b578182fd5b9392505050565b612acf806100916000396000f3fe60806040523480156200001157600080fd5b5060043610620000525760003560e01c806310d91cff14620000575780634275a8f714620000865780636ccffe7614620000b6578063a0d6bd5114620000c0575b600080fd5b6200006e6200006836600462000417565b620000d7565b6040516200007d91906200053d565b60405180910390f35b6200009d620000973660046200043d565b6200014f565b6040516001600160a01b0390911681526020016200007d565b6200006e62000198565b6200009d620000d136600462000491565b620001fc565b6001600160a01b0381166000908152600260209081526040918290208054835181840281018401909452808452606093928301828280156200014357602002820191906000526020600020905b81546001600160a01b0316815260019091019060200180831162000124575b50505050509050919050565b6001600160a01b0382166000908152600360205260408082209051620001779084906200051f565b908152604051908190036020019020546001600160a01b0316905092915050565b60606001805480602002602001604051908101604052809291908181526020018280548015620001f257602002820191906000526020600020905b81546001600160a01b03168152600190910190602001808311620001d3575b5050505050905090565b6000808211620002525760405162461bcd60e51b815260206004820181905260248201527f4572726f722c20737570706c79206d757374206265206174206c656173742031604482015260640160405180910390fd5b60008685858560008054906101000a90046001600160a01b03166040516200027a906200037a565b6200028a9594939291906200058c565b604051809103906000f080158015620002a7573d6000803e3d6000fd5b506001805480820182557fb10e2d527612073b26eecdfd717e6a320cf44b4afac2b0732d9fcbe2b7fa0cf60180546001600160a01b038085166001600160a01b0319928316811790935589166000818152600260209081526040808320805497880181558352818320909601805490941690941790925581526003909152819020905191925082918291906200033f908a906200051f565b90815260405190819003602001902080546001600160a01b03929092166001600160a01b031990921691909117905591505095945050505050565b612451806200064983390190565b600082601f83011262000399578081fd5b813567ffffffffffffffff80821115620003b757620003b762000619565b604051601f8301601f19908116603f01168101908282118183101715620003e257620003e262000619565b81604052838152866020858801011115620003fb578485fd5b8360208701602083013792830160200193909352509392505050565b60006020828403121562000429578081fd5b813562000436816200062f565b9392505050565b6000806040838503121562000450578081fd5b82356200045d816200062f565b9150602083013567ffffffffffffffff81111562000479578182fd5b620004878582860162000388565b9150509250929050565b600080600080600060a08688031215620004a9578081fd5b853567ffffffffffffffff80821115620004c1578283fd5b620004cf89838a0162000388565b96506020880135915080821115620004e5578283fd5b50620004f48882890162000388565b945050604086013562000507816200062f565b94979396509394606081013594506080013592915050565b6000825162000533818460208701620005e6565b9190910192915050565b6020808252825182820181905260009190848201906040850190845b81811015620005805783516001600160a01b03168352928401929184019160010162000559565b50909695505050505050565b60a08152600086518060a0840152620005ad8160c0850160208b01620005e6565b6001600160a01b03968716602084015260408301959095525060608101929092529092166080830152601f01601f19160160c001919050565b60005b8381101562000603578181015183820152602001620005e9565b8381111562000613576000848401525b50505050565b634e487b7160e01b600052604160045260246000fd5b6001600160a01b03811681146200064557600080fd5b5056fe60806040523480156200001157600080fd5b5060405162002451380380620024518339810160408190526200003491620003ba565b60058054620000439062000518565b80601f0160208091040260200160405190810160405280929190818152602001828054620000719062000518565b8015620000c25780601f106200009657610100808354040283529160200191620000c2565b820191906000526020600020905b815481529060010190602001808311620000a457829003601f168201915b5050505050620000d8816200019460201b60201c565b50620000e433620001ad565b8451620000f9906005906020880190620002f7565b50600680546001600160a01b0319166001600160a01b03861617905560078390556008829055600060095562000157606462000143856005620001ff602090811b62000b6d17901c565b6200021460201b62000b801790919060201c565b600a55600b80546001600160a01b0319166001600160a01b038381169190911790915560065462000189911662000222565b50505050506200056b565b8051620001a9906002906020840190620002f7565b5050565b600380546001600160a01b038381166001600160a01b0319831681179093556040519116919082907f8be0079c531659141344cd1fd0a4f28419497f9722a3daafe3b4186f6b6457e090600090a35050565b60006200020d8284620004ec565b9392505050565b60006200020d8284620004cb565b6003546001600160a01b03163314620002825760405162461bcd60e51b815260206004820181905260248201527f4f776e61626c653a2063616c6c6572206973206e6f7420746865206f776e657260448201526064015b60405180910390fd5b6001600160a01b038116620002e95760405162461bcd60e51b815260206004820152602660248201527f4f776e61626c653a206e6577206f776e657220697320746865207a65726f206160448201526564647265737360d01b606482015260840162000279565b620002f481620001ad565b50565b828054620003059062000518565b90600052602060002090601f01602090048101928262000329576000855562000374565b82601f106200034457805160ff191683800117855562000374565b8280016001018555821562000374579182015b828111156200037457825182559160200191906001019062000357565b506200038292915062000386565b5090565b5b8082111562000382576000815560010162000387565b80516001600160a01b0381168114620003b557600080fd5b919050565b600080600080600060a08688031215620003d2578081fd5b85516001600160401b0380821115620003e9578283fd5b818801915088601f830112620003fd578283fd5b81518181111562000412576200041262000555565b604051601f8201601f19908116603f011681019083821181831017156200043d576200043d62000555565b81604052828152602093508b8484870101111562000459578586fd5b8591505b828210156200047c57848201840151818301850152908301906200045d565b828211156200048d57858484830101525b98506200049f9150508882016200039d565b955050506040860151925060608601519150620004bf608087016200039d565b90509295509295909350565b600082620004e757634e487b7160e01b81526012600452602481fd5b500490565b60008160001904831182151516156200051357634e487b7160e01b81526011600452602481fd5b500290565b600181811c908216806200052d57607f821691505b602082108114156200054f57634e487b7160e01b600052602260045260246000fd5b50919050565b634e487b7160e01b600052604160045260246000fd5b611ed6806200057b6000396000f3fe6080604052600436106101085760003560e01c80638da5cb5b11610095578063d96a094a11610064578063d96a094a14610314578063e985e9c514610327578063f23a6e6114610370578063f242432a1461039c578063f2fde38b146103bc57600080fd5b80638da5cb5b1461026757806391b7f5ed1461028f578063a22cb465146102af578063bc197c81146102cf57600080fd5b80632eb2c2d6116100dc5780632eb2c2d6146101bf5780633b4c4b25146101df5780634e1273f4146101ff5780636d4ce63c1461022c578063715018a61461025257600080fd5b8062fdd58e1461010d57806301ffc9a7146101405780630675b7c6146101705780630e89341c14610192575b600080fd5b34801561011957600080fd5b5061012d61012836600461184d565b6103dc565b6040519081526020015b60405180910390f35b34801561014c57600080fd5b5061016061015b366004611941565b610473565b6040519015158152602001610137565b34801561017c57600080fd5b5061019061018b366004611979565b610484565b005b34801561019e57600080fd5b506101b26101ad3660046119c7565b6104c5565b6040516101379190611b48565b3480156101cb57600080fd5b506101906101da36600461170a565b610559565b3480156101eb57600080fd5b506101906101fa3660046119c7565b6105f0565b34801561020b57600080fd5b5061021f61021a366004611876565b61061f565b6040516101379190611b07565b34801561023857600080fd5b50610241610781565b604051610137959493929190611b5b565b34801561025e57600080fd5b50610190610847565b34801561027357600080fd5b506003546040516001600160a01b039091168152602001610137565b34801561029b57600080fd5b506101906102aa3660046119c7565b61087d565b3480156102bb57600080fd5b506101906102ca366004611813565b6108ac565b3480156102db57600080fd5b506102fb6102ea36600461170a565b63bc197c8160e01b95945050505050565b6040516001600160e01b03199091168152602001610137565b61012d6103223660046119c7565b6108b7565b34801561033357600080fd5b506101606103423660046116d8565b6001600160a01b03918216600090815260016020908152604080832093909416825291909152205460ff1690565b34801561037c57600080fd5b506102fb61038b3660046117b0565b63f23a6e6160e01b95945050505050565b3480156103a857600080fd5b506101906103b73660046117b0565b610a4b565b3480156103c857600080fd5b506101906103d73660046116be565b610ad2565b60006001600160a01b03831661044d5760405162461bcd60e51b815260206004820152602b60248201527f455243313135353a2062616c616e636520717565727920666f7220746865207a60448201526a65726f206164647265737360a81b60648201526084015b60405180910390fd5b506000908152602081815260408083206001600160a01b03949094168352929052205490565b600061047e82610b8c565b92915050565b6003546001600160a01b031633146104ae5760405162461bcd60e51b815260040161044490611c72565b80516104c1906005906020840190611518565b5050565b6060600280546104d490611d39565b80601f016020809104026020016040519081016040528092919081815260200182805461050090611d39565b801561054d5780601f106105225761010080835404028352916020019161054d565b820191906000526020600020905b81548152906001019060200180831161053057829003601f168201915b50505050509050919050565b6001600160a01b03851633148061057557506105758533610342565b6105dc5760405162461bcd60e51b815260206004820152603260248201527f455243313135353a207472616e736665722063616c6c6572206973206e6f74206044820152711bdddb995c881b9bdc88185c1c1c9bdd995960721b6064820152608401610444565b6105e98585858585610bb1565b5050505050565b6003546001600160a01b0316331461061a5760405162461bcd60e51b815260040161044490611c72565b600855565b606081518351146106845760405162461bcd60e51b815260206004820152602960248201527f455243313135353a206163636f756e747320616e6420696473206c656e677468604482015268040dad2e6dac2e8c6d60bb1b6064820152608401610444565b6000835167ffffffffffffffff8111156106ae57634e487b7160e01b600052604160045260246000fd5b6040519080825280602002602001820160405280156106d7578160200160208202803683370190505b50905060005b84518110156107795761073e85828151811061070957634e487b7160e01b600052603260045260246000fd5b602002602001015185838151811061073157634e487b7160e01b600052603260045260246000fd5b60200260200101516103dc565b82828151811061075e57634e487b7160e01b600052603260045260246000fd5b602090810291909101015261077281611da1565b90506106dd565b509392505050565b60606000806000806005600660009054906101000a90046001600160a01b03166007546008546009548480546107b690611d39565b80601f01602080910402602001604051908101604052809291908181526020018280546107e290611d39565b801561082f5780601f106108045761010080835404028352916020019161082f565b820191906000526020600020905b81548152906001019060200180831161081257829003601f168201915b50505050509450945094509450945094509091929394565b6003546001600160a01b031633146108715760405162461bcd60e51b815260040161044490611c72565b61087b6000610daa565b565b6003546001600160a01b031633146108a75760405162461bcd60e51b815260040161044490611c72565b600755565b6104c1338383610dfc565b60003332146109165760405162461bcd60e51b815260206004820152602560248201527f4e6f207472616e73616374696f6e732066726f6d20736d61727420636f6e7472604482015264616374732160d81b6064820152608401610444565b6007546109239083610b6d565b3410156109725760405162461bcd60e51b815260206004820152601960248201527f4572726f722c2070726f6475637420636f737473206d6f7265000000000000006044820152606401610444565b60095460085461098191610edd565b8211156109e65760405162461bcd60e51b815260206004820152602d60248201527f4572726f722c20616d6f756e7420697320686967686572207468616e2061766160448201526c696c61626c6520737570706c7960981b6064820152608401610444565b6109f4600480546001019055565b60006109ff60045490565b600954909150610a0f9084610ee9565b600981905550610a3033828560405180602001604052806000815250610ef5565b600a54600b5461047e916001600160a01b0390911690610fff565b6001600160a01b038516331480610a675750610a678533610342565b610ac55760405162461bcd60e51b815260206004820152602960248201527f455243313135353a2063616c6c6572206973206e6f74206f776e6572206e6f7260448201526808185c1c1c9bdd995960ba1b6064820152608401610444565b6105e9858585858561111d565b6003546001600160a01b03163314610afc5760405162461bcd60e51b815260040161044490611c72565b6001600160a01b038116610b615760405162461bcd60e51b815260206004820152602660248201527f4f776e61626c653a206e6577206f776e657220697320746865207a65726f206160448201526564647265737360d01b6064820152608401610444565b610b6a81610daa565b50565b6000610b798284611d03565b9392505050565b6000610b798284611ce3565b60006001600160e01b03198216630271189760e51b148061047e575061047e8261123a565b8151835114610c135760405162461bcd60e51b815260206004820152602860248201527f455243313135353a2069647320616e6420616d6f756e7473206c656e677468206044820152670dad2e6dac2e8c6d60c31b6064820152608401610444565b6001600160a01b038416610c395760405162461bcd60e51b815260040161044490611be3565b3360005b8451811015610d3c576000858281518110610c6857634e487b7160e01b600052603260045260246000fd5b602002602001015190506000858381518110610c9457634e487b7160e01b600052603260045260246000fd5b602090810291909101810151600084815280835260408082206001600160a01b038e168352909352919091205490915081811015610ce45760405162461bcd60e51b815260040161044490611c28565b6000838152602081815260408083206001600160a01b038e8116855292528083208585039055908b16825281208054849290610d21908490611ccb565b9250508190555050505080610d3590611da1565b9050610c3d565b50846001600160a01b0316866001600160a01b0316826001600160a01b03167f4a39dc06d4c0dbc64b70af90fd698a233a518aa5d07e595d983b8c0526c8f7fb8787604051610d8c929190611b1a565b60405180910390a4610da281878787878761128a565b505050505050565b600380546001600160a01b038381166001600160a01b0319831681179093556040519116919082907f8be0079c531659141344cd1fd0a4f28419497f9722a3daafe3b4186f6b6457e090600090a35050565b816001600160a01b0316836001600160a01b03161415610e705760405162461bcd60e51b815260206004820152602960248201527f455243313135353a2073657474696e6720617070726f76616c20737461747573604482015268103337b91039b2b63360b91b6064820152608401610444565b6001600160a01b03838116600081815260016020908152604080832094871680845294825291829020805460ff191686151590811790915591519182527f17307eab39ab6107e8899845ad3d59bd9653f200f220920489ca2b5937696c31910160405180910390a3505050565b6000610b798284611d22565b6000610b798284611ccb565b6001600160a01b038416610f555760405162461bcd60e51b815260206004820152602160248201527f455243313135353a206d696e7420746f20746865207a65726f206164647265736044820152607360f81b6064820152608401610444565b33610f6f81600087610f66886113f5565b6105e9886113f5565b6000848152602081815260408083206001600160a01b038916845290915281208054859290610f9f908490611ccb565b909155505060408051858152602081018590526001600160a01b0380881692600092918516917fc3d58168c5ae7397731d063d5bbf3d657854427343f4c083240f7aacaa2d0f62910160405180910390a46105e98160008787878761144e565b8047101561104f5760405162461bcd60e51b815260206004820152601d60248201527f416464726573733a20696e73756666696369656e742062616c616e63650000006044820152606401610444565b6000826001600160a01b03168260405160006040518083038185875af1925050503d806000811461109c576040519150601f19603f3d011682016040523d82523d6000602084013e6110a1565b606091505b50509050806111185760405162461bcd60e51b815260206004820152603a60248201527f416464726573733a20756e61626c6520746f2073656e642076616c75652c207260448201527f6563697069656e74206d617920686176652072657665727465640000000000006064820152608401610444565b505050565b6001600160a01b0384166111435760405162461bcd60e51b815260040161044490611be3565b33611153818787610f66886113f5565b6000848152602081815260408083206001600160a01b038a168452909152902054838110156111945760405162461bcd60e51b815260040161044490611c28565b6000858152602081815260408083206001600160a01b038b81168552925280832087850390559088168252812080548692906111d1908490611ccb565b909155505060408051868152602081018690526001600160a01b03808916928a821692918616917fc3d58168c5ae7397731d063d5bbf3d657854427343f4c083240f7aacaa2d0f62910160405180910390a461123182888888888861144e565b50505050505050565b60006001600160e01b03198216636cdb3d1360e11b148061126b57506001600160e01b031982166303a24d0760e21b145b8061047e57506301ffc9a760e01b6001600160e01b031983161461047e565b6001600160a01b0384163b15610da25760405163bc197c8160e01b81526001600160a01b0385169063bc197c81906112ce9089908990889088908890600401611a64565b602060405180830381600087803b1580156112e857600080fd5b505af1925050508015611318575060408051601f3d908101601f191682019092526113159181019061195d565b60015b6113c557611324611de8565b806308c379a0141561135e5750611339611e00565b806113445750611360565b8060405162461bcd60e51b81526004016104449190611b48565b505b60405162461bcd60e51b815260206004820152603460248201527f455243313135353a207472616e7366657220746f206e6f6e20455243313135356044820152732932b1b2b4bb32b91034b6b83632b6b2b73a32b960611b6064820152608401610444565b6001600160e01b0319811663bc197c8160e01b146112315760405162461bcd60e51b815260040161044490611b9b565b6040805160018082528183019092526060916000919060208083019080368337019050509050828160008151811061143d57634e487b7160e01b600052603260045260246000fd5b602090810291909101015292915050565b6001600160a01b0384163b15610da25760405163f23a6e6160e01b81526001600160a01b0385169063f23a6e61906114929089908990889088908890600401611ac2565b602060405180830381600087803b1580156114ac57600080fd5b505af19250505080156114dc575060408051601f3d908101601f191682019092526114d99181019061195d565b60015b6114e857611324611de8565b6001600160e01b0319811663f23a6e6160e01b146112315760405162461bcd60e51b815260040161044490611b9b565b82805461152490611d39565b90600052602060002090601f016020900481019282611546576000855561158c565b82601f1061155f57805160ff191683800117855561158c565b8280016001018555821561158c579182015b8281111561158c578251825591602001919060010190611571565b5061159892915061159c565b5090565b5b80821115611598576000815560010161159d565b600067ffffffffffffffff8311156115cb576115cb611dd2565b6040516115e2601f8501601f191660200182611d74565b8091508381528484840111156115f757600080fd5b83836020830137600060208583010152509392505050565b80356001600160a01b038116811461162657600080fd5b919050565b600082601f83011261163b578081fd5b8135602061164882611ca7565b6040516116558282611d74565b8381528281019150858301600585901b87018401881015611674578586fd5b855b8581101561169257813584529284019290840190600101611676565b5090979650505050505050565b600082601f8301126116af578081fd5b610b79838335602085016115b1565b6000602082840312156116cf578081fd5b610b798261160f565b600080604083850312156116ea578081fd5b6116f38361160f565b91506117016020840161160f565b90509250929050565b600080600080600060a08688031215611721578081fd5b61172a8661160f565b94506117386020870161160f565b9350604086013567ffffffffffffffff80821115611754578283fd5b61176089838a0161162b565b94506060880135915080821115611775578283fd5b61178189838a0161162b565b93506080880135915080821115611796578283fd5b506117a38882890161169f565b9150509295509295909350565b600080600080600060a086880312156117c7578081fd5b6117d08661160f565b94506117de6020870161160f565b93506040860135925060608601359150608086013567ffffffffffffffff811115611807578182fd5b6117a38882890161169f565b60008060408385031215611825578182fd5b61182e8361160f565b915060208301358015158114611842578182fd5b809150509250929050565b6000806040838503121561185f578182fd5b6118688361160f565b946020939093013593505050565b60008060408385031215611888578182fd5b823567ffffffffffffffff8082111561189f578384fd5b818501915085601f8301126118b2578384fd5b813560206118bf82611ca7565b6040516118cc8282611d74565b8381528281019150858301600585901b870184018b10156118eb578889fd5b8896505b84871015611914576119008161160f565b8352600196909601959183019183016118ef565b509650508601359250508082111561192a578283fd5b506119378582860161162b565b9150509250929050565b600060208284031215611952578081fd5b8135610b7981611e8a565b60006020828403121561196e578081fd5b8151610b7981611e8a565b60006020828403121561198a578081fd5b813567ffffffffffffffff8111156119a0578182fd5b8201601f810184136119b0578182fd5b6119bf848235602084016115b1565b949350505050565b6000602082840312156119d8578081fd5b5035919050565b6000815180845260208085019450808401835b83811015611a0e578151875295820195908201906001016119f2565b509495945050505050565b60008151808452815b81811015611a3e57602081850181015186830182015201611a22565b81811115611a4f5782602083870101525b50601f01601f19169290920160200192915050565b6001600160a01b0386811682528516602082015260a060408201819052600090611a90908301866119df565b8281036060840152611aa281866119df565b90508281036080840152611ab68185611a19565b98975050505050505050565b6001600160a01b03868116825285166020820152604081018490526060810183905260a060808201819052600090611afc90830184611a19565b979650505050505050565b602081526000610b7960208301846119df565b604081526000611b2d60408301856119df565b8281036020840152611b3f81856119df565b95945050505050565b602081526000610b796020830184611a19565b60a081526000611b6e60a0830188611a19565b6001600160a01b039690961660208301525060408101939093526060830191909152608090910152919050565b60208082526028908201527f455243313135353a204552433131353552656365697665722072656a656374656040820152676420746f6b656e7360c01b606082015260800190565b60208082526025908201527f455243313135353a207472616e7366657220746f20746865207a65726f206164604082015264647265737360d81b606082015260800190565b6020808252602a908201527f455243313135353a20696e73756666696369656e742062616c616e636520666f60408201526939103a3930b739b332b960b11b606082015260800190565b6020808252818101527f4f776e61626c653a2063616c6c6572206973206e6f7420746865206f776e6572604082015260600190565b600067ffffffffffffffff821115611cc157611cc1611dd2565b5060051b60200190565b60008219821115611cde57611cde611dbc565b500190565b600082611cfe57634e487b7160e01b81526012600452602481fd5b500490565b6000816000190483118215151615611d1d57611d1d611dbc565b500290565b600082821015611d3457611d34611dbc565b500390565b600181811c90821680611d4d57607f821691505b60208210811415611d6e57634e487b7160e01b600052602260045260246000fd5b50919050565b601f8201601f1916810167ffffffffffffffff81118282101715611d9a57611d9a611dd2565b6040525050565b6000600019821415611db557611db5611dbc565b5060010190565b634e487b7160e01b600052601160045260246000fd5b634e487b7160e01b600052604160045260246000fd5b600060033d1115611dfd57600481823e5160e01c5b90565b600060443d1015611e0e5790565b6040516003193d81016004833e81513d67ffffffffffffffff8160248401118184111715611e3e57505050505090565b8285019150815181811115611e565750505050505090565b843d8701016020828501011115611e705750505050505090565b611e7f60208286010187611d74565b509095945050505050565b6001600160e01b031981168114610b6a57600080fdfea2646970667358221220e4782120a18149f0d84a7b20269120cc5e10b8ab895e4d210733a7fed75bac0464736f6c63430008040033a2646970667358221220604c98a9f9b868f0c66266882136a7590e88b1592afe12a8fca4839dc009d9ec64736f6c63430008040033",
  "linkReferences": {},
  "deployedLinkReferences": {}
}