{
  "_format": "hh-sol-artifact-1",
  "contractName": "ProductFactory",
  "sourceName": "contracts/ProductFactory.sol",
  "abi": [
    {
      "inputs": [],
      "stateMutability": "nonpayable",
      "type": "constructor"
    },
    {
      "inputs": [
        {
          "internalType": "string",
          "name": "tokenUri",
          "type": "string"
        },
        {
          "internalType": "string",
          "name": "slug",
          "type": "string"
        },
        {
          "internalType": "address payable",
          "name": "seller",
          "type": "address"
        },
        {
          "internalType": "uint256",
          "name": "price",
          "type": "uint256"
        },
        {
          "internalType": "uint256",
          "name": "supply",
          "type": "uint256"
        }
      ],
      "name": "create",
      "outputs": [
        {
          "internalType": "address",
          "name": "",
          "type": "address"
        }
      ],
      "stateMutability": "nonpayable",
      "type": "function"
    },
    {
      "inputs": [
        {
          "internalType": "address",
          "name": "_seller",
          "type": "address"
        },
        {
          "internalType": "string",
          "name": "_slug",
          "type": "string"
        }
      ],
      "name": "fetchProductBySlug",
      "outputs": [
        {
          "internalType": "address",
          "name": "",
          "type": "address"
        }
      ],
      "stateMutability": "view",
      "type": "function"
    },
    {
      "inputs": [],
      "name": "fetchProducts",
      "outputs": [
        {
          "internalType": "address[]",
          "name": "",
          "type": "address[]"
        }
      ],
      "stateMutability": "view",
      "type": "function"
    },
    {
      "inputs": [
        {
          "internalType": "address",
          "name": "_seller",
          "type": "address"
        }
      ],
      "name": "fetchSellerProducts",
      "outputs": [
        {
          "internalType": "address[]",
          "name": "",
          "type": "address[]"
        }
      ],
      "stateMutability": "view",
      "type": "function"
    }
  ],
  "bytecode": "0x608060405234801561001057600080fd5b50612963806100206000396000f3fe60806040523480156200001157600080fd5b5060043610620000525760003560e01c806310d91cff14620000575780634275a8f714620000865780636ccffe7614620000b6578063a0d6bd5114620000c0575b600080fd5b6200006e6200006836600462000402565b620000d7565b6040516200007d919062000528565b60405180910390f35b6200009d6200009736600462000428565b6200014f565b6040516001600160a01b0390911681526020016200007d565b6200006e62000198565b6200009d620000d13660046200047c565b620001fc565b6001600160a01b0381166000908152600160209081526040918290208054835181840281018401909452808452606093928301828280156200014357602002820191906000526020600020905b81546001600160a01b0316815260019091019060200180831162000124575b50505050509050919050565b6001600160a01b0382166000908152600260205260408082209051620001779084906200050a565b908152604051908190036020019020546001600160a01b0316905092915050565b60606000805480602002602001604051908101604052809291908181526020018280548015620001f257602002820191906000526020600020905b81546001600160a01b03168152600190910190602001808311620001d3575b5050505050905090565b6000808211620002525760405162461bcd60e51b815260206004820181905260248201527f4572726f722c20737570706c79206d757374206265206174206c656173742031604482015260640160405180910390fd5b600086858585604051620002669062000365565b62000275949392919062000577565b604051809103906000f08015801562000292573d6000803e3d6000fd5b5060008054600181810183557f290decd9548b62a8d60345a988386fc84ba6bc95484008f6362f93160ef3e56390910180546001600160a01b038086166001600160a01b031992831681179093558a1680855260208481526040808720805496870181558752818720909501805490931690931790915583526002905290819020905191925082918291906200032a908a906200050a565b90815260405190819003602001902080546001600160a01b03929092166001600160a01b031990921691909117905591505095945050505050565b612302806200062c83390190565b600082601f83011262000384578081fd5b813567ffffffffffffffff80821115620003a257620003a2620005fc565b604051601f8301601f19908116603f01168101908282118183101715620003cd57620003cd620005fc565b81604052838152866020858801011115620003e6578485fd5b8360208701602083013792830160200193909352509392505050565b60006020828403121562000414578081fd5b8135620004218162000612565b9392505050565b600080604083850312156200043b578081fd5b8235620004488162000612565b9150602083013567ffffffffffffffff81111562000464578182fd5b620004728582860162000373565b9150509250929050565b600080600080600060a0868803121562000494578081fd5b853567ffffffffffffffff80821115620004ac578283fd5b620004ba89838a0162000373565b96506020880135915080821115620004d0578283fd5b50620004df8882890162000373565b9450506040860135620004f28162000612565b94979396509394606081013594506080013592915050565b600082516200051e818460208701620005c9565b9190910192915050565b6020808252825182820181905260009190848201906040850190845b818110156200056b5783516001600160a01b03168352928401929184019160010162000544565b50909695505050505050565b6080815260008551806080840152620005988160a0850160208a01620005c9565b6001600160a01b03959095166020830152506040810192909252606082015260a0601f909201601f19160101919050565b60005b83811015620005e6578181015183820152602001620005cc565b83811115620005f6576000848401525b50505050565b634e487b7160e01b600052604160045260246000fd5b6001600160a01b03811681146200062857600080fd5b5056fe60806040523480156200001157600080fd5b50604051620023023803806200230283398101604081905262000034916200033f565b6005805462000043906200043a565b80601f016020809104026020016040519081016040528092919081815260200182805462000071906200043a565b8015620000c25780601f106200009657610100808354040283529160200191620000c2565b820191906000526020600020905b815481529060010190602001808311620000a457829003601f168201915b5050505050620000d8816200013c60201b60201c565b50620000e43362000155565b8351620000f99060059060208701906200027c565b50600680546001600160a01b0319166001600160a01b0385169081179091556007839055600882905560006009556200013290620001a7565b505050506200048d565b8051620001519060029060208401906200027c565b5050565b600380546001600160a01b038381166001600160a01b0319831681179093556040519116919082907f8be0079c531659141344cd1fd0a4f28419497f9722a3daafe3b4186f6b6457e090600090a35050565b6003546001600160a01b03163314620002075760405162461bcd60e51b815260206004820181905260248201527f4f776e61626c653a2063616c6c6572206973206e6f7420746865206f776e657260448201526064015b60405180910390fd5b6001600160a01b0381166200026e5760405162461bcd60e51b815260206004820152602660248201527f4f776e61626c653a206e6577206f776e657220697320746865207a65726f206160448201526564647265737360d01b6064820152608401620001fe565b620002798162000155565b50565b8280546200028a906200043a565b90600052602060002090601f016020900481019282620002ae5760008555620002f9565b82601f10620002c957805160ff1916838001178555620002f9565b82800160010185558215620002f9579182015b82811115620002f9578251825591602001919060010190620002dc565b50620003079291506200030b565b5090565b5b808211156200030757600081556001016200030c565b80516001600160a01b03811681146200033a57600080fd5b919050565b6000806000806080858703121562000355578384fd5b84516001600160401b03808211156200036c578586fd5b818701915087601f83011262000380578586fd5b81518181111562000395576200039562000477565b604051601f8201601f19908116603f01168101908382118183101715620003c057620003c062000477565b81604052828152602093508a84848701011115620003dc578889fd5b8891505b82821015620003ff5784820184015181830185015290830190620003e0565b828211156200041057888484830101525b97506200042291505087820162000322565b60408801516060909801519699909850945050505050565b600181811c908216806200044f57607f821691505b602082108114156200047157634e487b7160e01b600052602260045260246000fd5b50919050565b634e487b7160e01b600052604160045260246000fd5b611e65806200049d6000396000f3fe6080604052600436106101345760003560e01c8063715018a6116100ab578063bc197c811161006f578063bc197c8114610352578063d96a094a14610397578063e985e9c5146103aa578063f23a6e61146103f3578063f242432a1461041f578063f2fde38b1461043f57600080fd5b8063715018a6146102bf5780638da5cb5b146102d457806391b7f5ed146102fc578063a035b1fe1461031c578063a22cb4651461033257600080fd5b80630e89341c116100fd5780630e89341c146101ea5780632eb2c2d614610217578063355e0c5d146102375780633b4c4b251461024c5780634e1273f41461026c5780636d4ce63c1461029957600080fd5b8062fdd58e1461013957806301ffc9a71461016c57806302c7e7af1461019c578063047fc9aa146101b25780630675b7c6146101c8575b600080fd5b34801561014557600080fd5b506101596101543660046117fc565b61045f565b6040519081526020015b60405180910390f35b34801561017857600080fd5b5061018c6101873660046118f0565b6104f6565b6040519015158152602001610163565b3480156101a857600080fd5b5061015960095481565b3480156101be57600080fd5b5061015960085481565b3480156101d457600080fd5b506101e86101e3366004611928565b610507565b005b3480156101f657600080fd5b5061020a610205366004611976565b610548565b6040516101639190611af7565b34801561022357600080fd5b506101e86102323660046116b9565b6105dc565b34801561024357600080fd5b5061020a610673565b34801561025857600080fd5b506101e8610267366004611976565b610701565b34801561027857600080fd5b5061028c610287366004611825565b610730565b6040516101639190611ab6565b3480156102a557600080fd5b506102ae610892565b604051610163959493929190611b0a565b3480156102cb57600080fd5b506101e8610958565b3480156102e057600080fd5b506003546040516001600160a01b039091168152602001610163565b34801561030857600080fd5b506101e8610317366004611976565b61098e565b34801561032857600080fd5b5061015960075481565b34801561033e57600080fd5b506101e861034d3660046117c2565b6109bd565b34801561035e57600080fd5b5061037e61036d3660046116b9565b63bc197c8160e01b95945050505050565b6040516001600160e01b03199091168152602001610163565b6101596103a5366004611976565b6109c8565b3480156103b657600080fd5b5061018c6103c5366004611687565b6001600160a01b03918216600090815260016020908152604080832093909416825291909152205460ff1690565b3480156103ff57600080fd5b5061037e61040e36600461175f565b63f23a6e6160e01b95945050505050565b34801561042b57600080fd5b506101e861043a36600461175f565b610b48565b34801561044b57600080fd5b506101e861045a36600461166d565b610bcf565b60006001600160a01b0383166104d05760405162461bcd60e51b815260206004820152602b60248201527f455243313135353a2062616c616e636520717565727920666f7220746865207a60448201526a65726f206164647265737360a81b60648201526084015b60405180910390fd5b506000908152602081815260408083206001600160a01b03949094168352929052205490565b600061050182610c6a565b92915050565b6003546001600160a01b031633146105315760405162461bcd60e51b81526004016104c790611c21565b80516105449060059060208401906114c0565b5050565b60606002805461055790611cc8565b80601f016020809104026020016040519081016040528092919081815260200182805461058390611cc8565b80156105d05780601f106105a5576101008083540402835291602001916105d0565b820191906000526020600020905b8154815290600101906020018083116105b357829003601f168201915b50505050509050919050565b6001600160a01b0385163314806105f857506105f885336103c5565b61065f5760405162461bcd60e51b815260206004820152603260248201527f455243313135353a207472616e736665722063616c6c6572206973206e6f74206044820152711bdddb995c881b9bdc88185c1c1c9bdd995960721b60648201526084016104c7565b61066c8585858585610c8f565b5050505050565b6005805461068090611cc8565b80601f01602080910402602001604051908101604052809291908181526020018280546106ac90611cc8565b80156106f95780601f106106ce576101008083540402835291602001916106f9565b820191906000526020600020905b8154815290600101906020018083116106dc57829003601f168201915b505050505081565b6003546001600160a01b0316331461072b5760405162461bcd60e51b81526004016104c790611c21565b600855565b606081518351146107955760405162461bcd60e51b815260206004820152602960248201527f455243313135353a206163636f756e747320616e6420696473206c656e677468604482015268040dad2e6dac2e8c6d60bb1b60648201526084016104c7565b6000835167ffffffffffffffff8111156107bf57634e487b7160e01b600052604160045260246000fd5b6040519080825280602002602001820160405280156107e8578160200160208202803683370190505b50905060005b845181101561088a5761084f85828151811061081a57634e487b7160e01b600052603260045260246000fd5b602002602001015185838151811061084257634e487b7160e01b600052603260045260246000fd5b602002602001015161045f565b82828151811061086f57634e487b7160e01b600052603260045260246000fd5b602090810291909101015261088381611d30565b90506107ee565b509392505050565b60606000806000806005600660009054906101000a90046001600160a01b03166007546008546009548480546108c790611cc8565b80601f01602080910402602001604051908101604052809291908181526020018280546108f390611cc8565b80156109405780601f1061091557610100808354040283529160200191610940565b820191906000526020600020905b81548152906001019060200180831161092357829003601f168201915b50505050509450945094509450945094509091929394565b6003546001600160a01b031633146109825760405162461bcd60e51b81526004016104c790611c21565b61098c6000610e88565b565b6003546001600160a01b031633146109b85760405162461bcd60e51b81526004016104c790611c21565b600755565b610544338383610eda565b6000333214610a275760405162461bcd60e51b815260206004820152602560248201527f4e6f207472616e73616374696f6e732066726f6d20736d61727420636f6e7472604482015264616374732160d81b60648201526084016104c7565b81600754610a359190611c92565b341015610a845760405162461bcd60e51b815260206004820152601960248201527f4572726f722c2070726f6475637420636f737473206d6f72650000000000000060448201526064016104c7565b600954600854610a949190611cb1565b821115610af95760405162461bcd60e51b815260206004820152602d60248201527f4572726f722c20616d6f756e7420697320686967686572207468616e2061766160448201526c696c61626c6520737570706c7960981b60648201526084016104c7565b610b07600480546001019055565b6000610b1260045490565b90508260096000828254610b269190611c7a565b9250508190555061050133828560405180602001604052806000815250610fbb565b6001600160a01b038516331480610b645750610b6485336103c5565b610bc25760405162461bcd60e51b815260206004820152602960248201527f455243313135353a2063616c6c6572206973206e6f74206f776e6572206e6f7260448201526808185c1c1c9bdd995960ba1b60648201526084016104c7565b61066c85858585856110c5565b6003546001600160a01b03163314610bf95760405162461bcd60e51b81526004016104c790611c21565b6001600160a01b038116610c5e5760405162461bcd60e51b815260206004820152602660248201527f4f776e61626c653a206e6577206f776e657220697320746865207a65726f206160448201526564647265737360d01b60648201526084016104c7565b610c6781610e88565b50565b60006001600160e01b03198216630271189760e51b14806105015750610501826111e2565b8151835114610cf15760405162461bcd60e51b815260206004820152602860248201527f455243313135353a2069647320616e6420616d6f756e7473206c656e677468206044820152670dad2e6dac2e8c6d60c31b60648201526084016104c7565b6001600160a01b038416610d175760405162461bcd60e51b81526004016104c790611b92565b3360005b8451811015610e1a576000858281518110610d4657634e487b7160e01b600052603260045260246000fd5b602002602001015190506000858381518110610d7257634e487b7160e01b600052603260045260246000fd5b602090810291909101810151600084815280835260408082206001600160a01b038e168352909352919091205490915081811015610dc25760405162461bcd60e51b81526004016104c790611bd7565b6000838152602081815260408083206001600160a01b038e8116855292528083208585039055908b16825281208054849290610dff908490611c7a565b9250508190555050505080610e1390611d30565b9050610d1b565b50846001600160a01b0316866001600160a01b0316826001600160a01b03167f4a39dc06d4c0dbc64b70af90fd698a233a518aa5d07e595d983b8c0526c8f7fb8787604051610e6a929190611ac9565b60405180910390a4610e80818787878787611232565b505050505050565b600380546001600160a01b038381166001600160a01b0319831681179093556040519116919082907f8be0079c531659141344cd1fd0a4f28419497f9722a3daafe3b4186f6b6457e090600090a35050565b816001600160a01b0316836001600160a01b03161415610f4e5760405162461bcd60e51b815260206004820152602960248201527f455243313135353a2073657474696e6720617070726f76616c20737461747573604482015268103337b91039b2b63360b91b60648201526084016104c7565b6001600160a01b03838116600081815260016020908152604080832094871680845294825291829020805460ff191686151590811790915591519182527f17307eab39ab6107e8899845ad3d59bd9653f200f220920489ca2b5937696c31910160405180910390a3505050565b6001600160a01b03841661101b5760405162461bcd60e51b815260206004820152602160248201527f455243313135353a206d696e7420746f20746865207a65726f206164647265736044820152607360f81b60648201526084016104c7565b336110358160008761102c8861139d565b61066c8861139d565b6000848152602081815260408083206001600160a01b038916845290915281208054859290611065908490611c7a565b909155505060408051858152602081018590526001600160a01b0380881692600092918516917fc3d58168c5ae7397731d063d5bbf3d657854427343f4c083240f7aacaa2d0f62910160405180910390a461066c816000878787876113f6565b6001600160a01b0384166110eb5760405162461bcd60e51b81526004016104c790611b92565b336110fb81878761102c8861139d565b6000848152602081815260408083206001600160a01b038a1684529091529020548381101561113c5760405162461bcd60e51b81526004016104c790611bd7565b6000858152602081815260408083206001600160a01b038b8116855292528083208785039055908816825281208054869290611179908490611c7a565b909155505060408051868152602081018690526001600160a01b03808916928a821692918616917fc3d58168c5ae7397731d063d5bbf3d657854427343f4c083240f7aacaa2d0f62910160405180910390a46111d98288888888886113f6565b50505050505050565b60006001600160e01b03198216636cdb3d1360e11b148061121357506001600160e01b031982166303a24d0760e21b145b8061050157506301ffc9a760e01b6001600160e01b0319831614610501565b6001600160a01b0384163b15610e805760405163bc197c8160e01b81526001600160a01b0385169063bc197c81906112769089908990889088908890600401611a13565b602060405180830381600087803b15801561129057600080fd5b505af19250505080156112c0575060408051601f3d908101601f191682019092526112bd9181019061190c565b60015b61136d576112cc611d77565b806308c379a0141561130657506112e1611d8f565b806112ec5750611308565b8060405162461bcd60e51b81526004016104c79190611af7565b505b60405162461bcd60e51b815260206004820152603460248201527f455243313135353a207472616e7366657220746f206e6f6e20455243313135356044820152732932b1b2b4bb32b91034b6b83632b6b2b73a32b960611b60648201526084016104c7565b6001600160e01b0319811663bc197c8160e01b146111d95760405162461bcd60e51b81526004016104c790611b4a565b604080516001808252818301909252606091600091906020808301908036833701905050905082816000815181106113e557634e487b7160e01b600052603260045260246000fd5b602090810291909101015292915050565b6001600160a01b0384163b15610e805760405163f23a6e6160e01b81526001600160a01b0385169063f23a6e619061143a9089908990889088908890600401611a71565b602060405180830381600087803b15801561145457600080fd5b505af1925050508015611484575060408051601f3d908101601f191682019092526114819181019061190c565b60015b611490576112cc611d77565b6001600160e01b0319811663f23a6e6160e01b146111d95760405162461bcd60e51b81526004016104c790611b4a565b8280546114cc90611cc8565b90600052602060002090601f0160209004810192826114ee5760008555611534565b82601f1061150757805160ff1916838001178555611534565b82800160010185558215611534579182015b82811115611534578251825591602001919060010190611519565b50611540929150611544565b5090565b5b808211156115405760008155600101611545565b600067ffffffffffffffff83111561157357611573611d61565b60405161158a601f8501601f191660200182611d03565b80915083815284848401111561159f57600080fd5b83836020830137600060208583010152509392505050565b80356001600160a01b03811681146115ce57600080fd5b919050565b600082601f8301126115e3578081fd5b813560206115f082611c56565b6040516115fd8282611d03565b8381528281019150858301600585901b8701840188101561161c578586fd5b855b8581101561163a5781358452928401929084019060010161161e565b5090979650505050505050565b600082601f830112611657578081fd5b61166683833560208501611559565b9392505050565b60006020828403121561167e578081fd5b611666826115b7565b60008060408385031215611699578081fd5b6116a2836115b7565b91506116b0602084016115b7565b90509250929050565b600080600080600060a086880312156116d0578081fd5b6116d9866115b7565b94506116e7602087016115b7565b9350604086013567ffffffffffffffff80821115611703578283fd5b61170f89838a016115d3565b94506060880135915080821115611724578283fd5b61173089838a016115d3565b93506080880135915080821115611745578283fd5b5061175288828901611647565b9150509295509295909350565b600080600080600060a08688031215611776578081fd5b61177f866115b7565b945061178d602087016115b7565b93506040860135925060608601359150608086013567ffffffffffffffff8111156117b6578182fd5b61175288828901611647565b600080604083850312156117d4578182fd5b6117dd836115b7565b9150602083013580151581146117f1578182fd5b809150509250929050565b6000806040838503121561180e578182fd5b611817836115b7565b946020939093013593505050565b60008060408385031215611837578182fd5b823567ffffffffffffffff8082111561184e578384fd5b818501915085601f830112611861578384fd5b8135602061186e82611c56565b60405161187b8282611d03565b8381528281019150858301600585901b870184018b101561189a578889fd5b8896505b848710156118c3576118af816115b7565b83526001969096019591830191830161189e565b50965050860135925050808211156118d9578283fd5b506118e6858286016115d3565b9150509250929050565b600060208284031215611901578081fd5b813561166681611e19565b60006020828403121561191d578081fd5b815161166681611e19565b600060208284031215611939578081fd5b813567ffffffffffffffff81111561194f578182fd5b8201601f8101841361195f578182fd5b61196e84823560208401611559565b949350505050565b600060208284031215611987578081fd5b5035919050565b6000815180845260208085019450808401835b838110156119bd578151875295820195908201906001016119a1565b509495945050505050565b60008151808452815b818110156119ed576020818501810151868301820152016119d1565b818111156119fe5782602083870101525b50601f01601f19169290920160200192915050565b6001600160a01b0386811682528516602082015260a060408201819052600090611a3f9083018661198e565b8281036060840152611a51818661198e565b90508281036080840152611a6581856119c8565b98975050505050505050565b6001600160a01b03868116825285166020820152604081018490526060810183905260a060808201819052600090611aab908301846119c8565b979650505050505050565b602081526000611666602083018461198e565b604081526000611adc604083018561198e565b8281036020840152611aee818561198e565b95945050505050565b60208152600061166660208301846119c8565b60a081526000611b1d60a08301886119c8565b6001600160a01b039690961660208301525060408101939093526060830191909152608090910152919050565b60208082526028908201527f455243313135353a204552433131353552656365697665722072656a656374656040820152676420746f6b656e7360c01b606082015260800190565b60208082526025908201527f455243313135353a207472616e7366657220746f20746865207a65726f206164604082015264647265737360d81b606082015260800190565b6020808252602a908201527f455243313135353a20696e73756666696369656e742062616c616e636520666f60408201526939103a3930b739b332b960b11b606082015260800190565b6020808252818101527f4f776e61626c653a2063616c6c6572206973206e6f7420746865206f776e6572604082015260600190565b600067ffffffffffffffff821115611c7057611c70611d61565b5060051b60200190565b60008219821115611c8d57611c8d611d4b565b500190565b6000816000190483118215151615611cac57611cac611d4b565b500290565b600082821015611cc357611cc3611d4b565b500390565b600181811c90821680611cdc57607f821691505b60208210811415611cfd57634e487b7160e01b600052602260045260246000fd5b50919050565b601f8201601f1916810167ffffffffffffffff81118282101715611d2957611d29611d61565b6040525050565b6000600019821415611d4457611d44611d4b565b5060010190565b634e487b7160e01b600052601160045260246000fd5b634e487b7160e01b600052604160045260246000fd5b600060033d1115611d8c57600481823e5160e01c5b90565b600060443d1015611d9d5790565b6040516003193d81016004833e81513d67ffffffffffffffff8160248401118184111715611dcd57505050505090565b8285019150815181811115611de55750505050505090565b843d8701016020828501011115611dff5750505050505090565b611e0e60208286010187611d03565b509095945050505050565b6001600160e01b031981168114610c6757600080fdfea2646970667358221220032a16f2141b623aa825f3c27e957e6dc5598879a82d7adff3220961aea225f964736f6c63430008040033a2646970667358221220d910b39a2c1b5e38b5d0428dd013c15ead586705341301b6d03fba878849e06d64736f6c63430008040033",
  "linkReferences": {},
  "deployedLinkReferences": {}
}