{
  "_format": "hh-sol-artifact-1",
  "contractName": "ProductFactory",
  "sourceName": "contracts/ProductFactory.sol",
  "abi": [
    {
      "inputs": [
        {
          "internalType": "address",
          "name": "_profitSharingToken",
          "type": "address"
        }
      ],
      "stateMutability": "nonpayable",
      "type": "constructor"
    },
    {
      "anonymous": false,
      "inputs": [
        {
          "indexed": true,
          "internalType": "uint256",
          "name": "productId",
          "type": "uint256"
        },
        {
          "indexed": false,
          "internalType": "address",
          "name": "productContract",
          "type": "address"
        },
        {
          "indexed": false,
          "internalType": "string",
          "name": "tokenUri",
          "type": "string"
        },
        {
          "indexed": false,
          "internalType": "string",
          "name": "slug",
          "type": "string"
        },
        {
          "indexed": false,
          "internalType": "address",
          "name": "seller",
          "type": "address"
        },
        {
          "indexed": false,
          "internalType": "uint256",
          "name": "price",
          "type": "uint256"
        },
        {
          "indexed": false,
          "internalType": "uint256",
          "name": "supply",
          "type": "uint256"
        }
      ],
      "name": "ProductCreated",
      "type": "event"
    },
    {
      "inputs": [
        {
          "internalType": "address",
          "name": "seller",
          "type": "address"
        },
        {
          "internalType": "string",
          "name": "slug",
          "type": "string"
        },
        {
          "internalType": "uint256",
          "name": "amount",
          "type": "uint256"
        }
      ],
      "name": "buy",
      "outputs": [
        {
          "internalType": "uint256",
          "name": "",
          "type": "uint256"
        }
      ],
      "stateMutability": "payable",
      "type": "function"
    },
    {
      "inputs": [
        {
          "internalType": "string",
          "name": "tokenUri",
          "type": "string"
        },
        {
          "internalType": "string",
          "name": "slug",
          "type": "string"
        },
        {
          "internalType": "address payable",
          "name": "seller",
          "type": "address"
        },
        {
          "internalType": "uint256",
          "name": "price",
          "type": "uint256"
        },
        {
          "internalType": "uint256",
          "name": "supply",
          "type": "uint256"
        }
      ],
      "name": "create",
      "outputs": [
        {
          "internalType": "address",
          "name": "",
          "type": "address"
        }
      ],
      "stateMutability": "nonpayable",
      "type": "function"
    },
    {
      "inputs": [
        {
          "internalType": "address",
          "name": "_seller",
          "type": "address"
        },
        {
          "internalType": "string",
          "name": "_slug",
          "type": "string"
        }
      ],
      "name": "fetchProductBySlug",
      "outputs": [
        {
          "internalType": "address",
          "name": "",
          "type": "address"
        }
      ],
      "stateMutability": "view",
      "type": "function"
    },
    {
      "inputs": [],
      "name": "fetchProducts",
      "outputs": [
        {
          "internalType": "address[]",
          "name": "",
          "type": "address[]"
        }
      ],
      "stateMutability": "view",
      "type": "function"
    },
    {
      "inputs": [
        {
          "internalType": "address",
          "name": "_seller",
          "type": "address"
        }
      ],
      "name": "fetchSellerProducts",
      "outputs": [
        {
          "internalType": "address[]",
          "name": "",
          "type": "address[]"
        }
      ],
      "stateMutability": "view",
      "type": "function"
    }
  ],
  "bytecode": "0x608060405234801561001057600080fd5b50604051612e3a380380612e3a83398101604081905261002f91610054565b600080546001600160a01b0319166001600160a01b0392909216919091179055610082565b600060208284031215610065578081fd5b81516001600160a01b038116811461007b578182fd5b9392505050565b612da9806100916000396000f3fe608060405260043610620000505760003560e01c806310d91cff14620000555780634275a8f714620000925780636ccffe7614620000d0578063a0d6bd5114620000e8578063b1c46d22146200010d575b600080fd5b3480156200006257600080fd5b506200007a6200007436600462000585565b62000133565b604051620000899190620007a5565b60405180910390f35b3480156200009f57600080fd5b50620000b7620000b1366004620005ab565b620001ab565b6040516001600160a01b03909116815260200162000089565b348015620000dd57600080fd5b506200007a620001f4565b348015620000f557600080fd5b50620000b7620001073660046200065c565b62000258565b620001246200011e366004620005ff565b6200041b565b60405190815260200162000089565b6001600160a01b0381166000908152600260209081526040918290208054835181840281018401909452808452606093928301828280156200019f57602002820191906000526020600020905b81546001600160a01b0316815260019091019060200180831162000180575b50505050509050919050565b6001600160a01b0382166000908152600360205260408082209051620001d390849062000731565b908152604051908190036020019020546001600160a01b0316905092915050565b606060018054806020026020016040519081016040528092919081815260200182805480156200024e57602002820191906000526020600020905b81546001600160a01b031681526001909101906020018083116200022f575b5050505050905090565b6000808211620002ae5760405162461bcd60e51b815260206004820181905260248201527f4572726f722c20737570706c79206d757374206265206174206c656173742031604482015260640160405180910390fd5b60008685858560008054906101000a90046001600160a01b0316604051620002d690620004e8565b620002e6959493929190620007f4565b604051809103906000f08015801562000303573d6000803e3d6000fd5b506001805480820182557fb10e2d527612073b26eecdfd717e6a320cf44b4afac2b0732d9fcbe2b7fa0cf60180546001600160a01b038085166001600160a01b0319928316811790935589166000818152600260209081526040808320805497880181558352818320909601805490941690941790925581526003909152819020905191925082918291906200039b908a9062000731565b90815260405190819003602001812080546001600160a01b03939093166001600160a01b031990931692909217909155600154907f6e60a2c698268a016c342272d2b9c6dc20fadc592e00cd65a401001a12f9a1de90620004089084908c908c908c908c908c906200074f565b60405180910390a2979650505050505050565b6001600160a01b03831660009081526003602052604080822090518291906200044690869062000731565b90815260405190819003602001812054636cb504a560e11b82526001600160a01b031691508190819063d96a094a906200048890879060040190815260200190565b602060405180830381600087803b158015620004a357600080fd5b505af1158015620004b8573d6000803e3d6000fd5b505050506040513d601f19601f82011682018060405250810190620004de9190620006ea565b9695505050505050565b6124d6806200089e83390190565b600082601f83011262000507578081fd5b813567ffffffffffffffff808211156200052557620005256200086e565b604051601f8301601f19908116603f011681019082821181831017156200055057620005506200086e565b8160405283815286602085880101111562000569578485fd5b8360208701602083013792830160200193909352509392505050565b60006020828403121562000597578081fd5b8135620005a48162000884565b9392505050565b60008060408385031215620005be578081fd5b8235620005cb8162000884565b9150602083013567ffffffffffffffff811115620005e7578182fd5b620005f585828601620004f6565b9150509250929050565b60008060006060848603121562000614578081fd5b8335620006218162000884565b9250602084013567ffffffffffffffff8111156200063d578182fd5b6200064b86828701620004f6565b925050604084013590509250925092565b600080600080600060a0868803121562000674578081fd5b853567ffffffffffffffff808211156200068c578283fd5b6200069a89838a01620004f6565b96506020880135915080821115620006b0578283fd5b50620006bf88828901620004f6565b9450506040860135620006d28162000884565b94979396509394606081013594506080013592915050565b600060208284031215620006fc578081fd5b5051919050565b600081518084526200071d8160208601602086016200083b565b601f01601f19169290920160200192915050565b60008251620007458184602087016200083b565b9190910192915050565b600060018060a01b03808916835260c060208401526200077360c084018962000703565b838103604085015262000787818962000703565b91909616606084015260808301949094525060a00152949350505050565b6020808252825182820181905260009190848201906040850190845b81811015620007e85783516001600160a01b031683529284019291840191600101620007c1565b50909695505050505050565b60a0815260006200080960a083018862000703565b6001600160a01b0396871660208401526040830195909552506060810192909252909216608090920191909152919050565b60005b83811015620008585781810151838201526020016200083e565b8381111562000868576000848401525b50505050565b634e487b7160e01b600052604160045260246000fd5b6001600160a01b03811681146200089a57600080fd5b5056fe60806040523480156200001157600080fd5b50604051620024d6380380620024d68339810160408190526200003491620003ba565b60058054620000439062000518565b80601f0160208091040260200160405190810160405280929190818152602001828054620000719062000518565b8015620000c25780601f106200009657610100808354040283529160200191620000c2565b820191906000526020600020905b815481529060010190602001808311620000a457829003601f168201915b5050505050620000d8816200019460201b60201c565b50620000e433620001ad565b8451620000f9906005906020880190620002f7565b50600680546001600160a01b0319166001600160a01b03861617905560078390556008829055600060095562000157606462000143856005620001ff602090811b62000bed17901c565b6200021460201b62000c001790919060201c565b600a55600b80546001600160a01b0319166001600160a01b038381169190911790915560065462000189911662000222565b50505050506200056b565b8051620001a9906002906020840190620002f7565b5050565b600380546001600160a01b038381166001600160a01b0319831681179093556040519116919082907f8be0079c531659141344cd1fd0a4f28419497f9722a3daafe3b4186f6b6457e090600090a35050565b60006200020d8284620004ec565b9392505050565b60006200020d8284620004cb565b6003546001600160a01b03163314620002825760405162461bcd60e51b815260206004820181905260248201527f4f776e61626c653a2063616c6c6572206973206e6f7420746865206f776e657260448201526064015b60405180910390fd5b6001600160a01b038116620002e95760405162461bcd60e51b815260206004820152602660248201527f4f776e61626c653a206e6577206f776e657220697320746865207a65726f206160448201526564647265737360d01b606482015260840162000279565b620002f481620001ad565b50565b828054620003059062000518565b90600052602060002090601f01602090048101928262000329576000855562000374565b82601f106200034457805160ff191683800117855562000374565b8280016001018555821562000374579182015b828111156200037457825182559160200191906001019062000357565b506200038292915062000386565b5090565b5b8082111562000382576000815560010162000387565b80516001600160a01b0381168114620003b557600080fd5b919050565b600080600080600060a08688031215620003d2578081fd5b85516001600160401b0380821115620003e9578283fd5b818801915088601f830112620003fd578283fd5b81518181111562000412576200041262000555565b604051601f8201601f19908116603f011681019083821181831017156200043d576200043d62000555565b81604052828152602093508b8484870101111562000459578586fd5b8591505b828210156200047c57848201840151818301850152908301906200045d565b828211156200048d57858484830101525b98506200049f9150508882016200039d565b955050506040860151925060608601519150620004bf608087016200039d565b90509295509295909350565b600082620004e757634e487b7160e01b81526012600452602481fd5b500490565b60008160001904831182151516156200051357634e487b7160e01b81526011600452602481fd5b500290565b600181811c908216806200052d57607f821691505b602082108114156200054f57634e487b7160e01b600052602260045260246000fd5b50919050565b634e487b7160e01b600052604160045260246000fd5b611f5b806200057b6000396000f3fe6080604052600436106101085760003560e01c80638da5cb5b11610095578063d96a094a11610064578063d96a094a14610315578063e985e9c514610328578063f23a6e6114610371578063f242432a1461039d578063f2fde38b146103bd57600080fd5b80638da5cb5b1461026857806391b7f5ed14610290578063a22cb465146102b0578063bc197c81146102d057600080fd5b80632eb2c2d6116100dc5780632eb2c2d6146101bf5780633b4c4b25146101df5780634e1273f4146101ff5780636d4ce63c1461022c578063715018a61461025357600080fd5b8062fdd58e1461010d57806301ffc9a7146101405780630675b7c6146101705780630e89341c14610192575b600080fd5b34801561011957600080fd5b5061012d6101283660046118cd565b6103dd565b6040519081526020015b60405180910390f35b34801561014c57600080fd5b5061016061015b3660046119c1565b610474565b6040519015158152602001610137565b34801561017c57600080fd5b5061019061018b3660046119f9565b610485565b005b34801561019e57600080fd5b506101b26101ad366004611a47565b6104c6565b6040516101379190611bc8565b3480156101cb57600080fd5b506101906101da36600461178a565b61055a565b3480156101eb57600080fd5b506101906101fa366004611a47565b6105f1565b34801561020b57600080fd5b5061021f61021a3660046118f6565b610620565b6040516101379190611b87565b34801561023857600080fd5b50610241610782565b60405161013796959493929190611bdb565b34801561025f57600080fd5b50610190610850565b34801561027457600080fd5b506003546040516001600160a01b039091168152602001610137565b34801561029c57600080fd5b506101906102ab366004611a47565b610886565b3480156102bc57600080fd5b506101906102cb366004611893565b6108b5565b3480156102dc57600080fd5b506102fc6102eb36600461178a565b63bc197c8160e01b95945050505050565b6040516001600160e01b03199091168152602001610137565b61012d610323366004611a47565b6108c0565b34801561033457600080fd5b50610160610343366004611758565b6001600160a01b03918216600090815260016020908152604080832093909416825291909152205460ff1690565b34801561037d57600080fd5b506102fc61038c366004611830565b63f23a6e6160e01b95945050505050565b3480156103a957600080fd5b506101906103b8366004611830565b610acb565b3480156103c957600080fd5b506101906103d836600461173e565b610b52565b60006001600160a01b03831661044e5760405162461bcd60e51b815260206004820152602b60248201527f455243313135353a2062616c616e636520717565727920666f7220746865207a60448201526a65726f206164647265737360a81b60648201526084015b60405180910390fd5b506000908152602081815260408083206001600160a01b03949094168352929052205490565b600061047f82610c0c565b92915050565b6003546001600160a01b031633146104af5760405162461bcd60e51b815260040161044590611cf7565b80516104c2906005906020840190611598565b5050565b6060600280546104d590611dbe565b80601f016020809104026020016040519081016040528092919081815260200182805461050190611dbe565b801561054e5780601f106105235761010080835404028352916020019161054e565b820191906000526020600020905b81548152906001019060200180831161053157829003601f168201915b50505050509050919050565b6001600160a01b03851633148061057657506105768533610343565b6105dd5760405162461bcd60e51b815260206004820152603260248201527f455243313135353a207472616e736665722063616c6c6572206973206e6f74206044820152711bdddb995c881b9bdc88185c1c1c9bdd995960721b6064820152608401610445565b6105ea8585858585610c31565b5050505050565b6003546001600160a01b0316331461061b5760405162461bcd60e51b815260040161044590611cf7565b600855565b606081518351146106855760405162461bcd60e51b815260206004820152602960248201527f455243313135353a206163636f756e747320616e6420696473206c656e677468604482015268040dad2e6dac2e8c6d60bb1b6064820152608401610445565b6000835167ffffffffffffffff8111156106af57634e487b7160e01b600052604160045260246000fd5b6040519080825280602002602001820160405280156106d8578160200160208202803683370190505b50905060005b845181101561077a5761073f85828151811061070a57634e487b7160e01b600052603260045260246000fd5b602002602001015185838151811061073257634e487b7160e01b600052603260045260246000fd5b60200260200101516103dd565b82828151811061075f57634e487b7160e01b600052603260045260246000fd5b602090810291909101015261077381611e26565b90506106de565b509392505050565b606060008060008060006005600660009054906101000a90046001600160a01b0316600754600854600954600a548580546107bc90611dbe565b80601f01602080910402602001604051908101604052809291908181526020018280546107e890611dbe565b80156108355780601f1061080a57610100808354040283529160200191610835565b820191906000526020600020905b81548152906001019060200180831161081857829003601f168201915b50505050509550955095509550955095509550909192939495565b6003546001600160a01b0316331461087a5760405162461bcd60e51b815260040161044590611cf7565b6108846000610e2a565b565b6003546001600160a01b031633146108b05760405162461bcd60e51b815260040161044590611cf7565b600755565b6104c2338383610e7c565b600033321461091f5760405162461bcd60e51b815260206004820152602560248201527f4e6f207472616e73616374696f6e732066726f6d20736d61727420636f6e7472604482015264616374732160d81b6064820152608401610445565b60075461092c9083610bed565b34101561097b5760405162461bcd60e51b815260206004820152601960248201527f4572726f722c2070726f6475637420636f737473206d6f7265000000000000006044820152606401610445565b60095460085461098a91610f5d565b8211156109ef5760405162461bcd60e51b815260206004820152602d60248201527f4572726f722c20616d6f756e7420697320686967686572207468616e2061766160448201526c696c61626c6520737570706c7960981b6064820152608401610445565b6109fd600480546001019055565b6000610a0860045490565b600954909150610a189084610f69565b600981905550610a3933828560405180602001604052806000815250610f75565b600a54600b54610a54916001600160a01b039091169061107f565b610a80610a6e600a54600754610f5d90919063ffffffff16565b6006546001600160a01b03169061107f565b6007546040805191825260208201859052339082015281907f5b05455ef199f04793eaa18a1c58e4e3a8cf064080ecebac7b6771e57b8c17749060600160405180910390a292915050565b6001600160a01b038516331480610ae75750610ae78533610343565b610b455760405162461bcd60e51b815260206004820152602960248201527f455243313135353a2063616c6c6572206973206e6f74206f776e6572206e6f7260448201526808185c1c1c9bdd995960ba1b6064820152608401610445565b6105ea858585858561119d565b6003546001600160a01b03163314610b7c5760405162461bcd60e51b815260040161044590611cf7565b6001600160a01b038116610be15760405162461bcd60e51b815260206004820152602660248201527f4f776e61626c653a206e6577206f776e657220697320746865207a65726f206160448201526564647265737360d01b6064820152608401610445565b610bea81610e2a565b50565b6000610bf98284611d88565b9392505050565b6000610bf98284611d68565b60006001600160e01b03198216630271189760e51b148061047f575061047f826112ba565b8151835114610c935760405162461bcd60e51b815260206004820152602860248201527f455243313135353a2069647320616e6420616d6f756e7473206c656e677468206044820152670dad2e6dac2e8c6d60c31b6064820152608401610445565b6001600160a01b038416610cb95760405162461bcd60e51b815260040161044590611c68565b3360005b8451811015610dbc576000858281518110610ce857634e487b7160e01b600052603260045260246000fd5b602002602001015190506000858381518110610d1457634e487b7160e01b600052603260045260246000fd5b602090810291909101810151600084815280835260408082206001600160a01b038e168352909352919091205490915081811015610d645760405162461bcd60e51b815260040161044590611cad565b6000838152602081815260408083206001600160a01b038e8116855292528083208585039055908b16825281208054849290610da1908490611d50565b9250508190555050505080610db590611e26565b9050610cbd565b50846001600160a01b0316866001600160a01b0316826001600160a01b03167f4a39dc06d4c0dbc64b70af90fd698a233a518aa5d07e595d983b8c0526c8f7fb8787604051610e0c929190611b9a565b60405180910390a4610e2281878787878761130a565b505050505050565b600380546001600160a01b038381166001600160a01b0319831681179093556040519116919082907f8be0079c531659141344cd1fd0a4f28419497f9722a3daafe3b4186f6b6457e090600090a35050565b816001600160a01b0316836001600160a01b03161415610ef05760405162461bcd60e51b815260206004820152602960248201527f455243313135353a2073657474696e6720617070726f76616c20737461747573604482015268103337b91039b2b63360b91b6064820152608401610445565b6001600160a01b03838116600081815260016020908152604080832094871680845294825291829020805460ff191686151590811790915591519182527f17307eab39ab6107e8899845ad3d59bd9653f200f220920489ca2b5937696c31910160405180910390a3505050565b6000610bf98284611da7565b6000610bf98284611d50565b6001600160a01b038416610fd55760405162461bcd60e51b815260206004820152602160248201527f455243313135353a206d696e7420746f20746865207a65726f206164647265736044820152607360f81b6064820152608401610445565b33610fef81600087610fe688611475565b6105ea88611475565b6000848152602081815260408083206001600160a01b03891684529091528120805485929061101f908490611d50565b909155505060408051858152602081018590526001600160a01b0380881692600092918516917fc3d58168c5ae7397731d063d5bbf3d657854427343f4c083240f7aacaa2d0f62910160405180910390a46105ea816000878787876114ce565b804710156110cf5760405162461bcd60e51b815260206004820152601d60248201527f416464726573733a20696e73756666696369656e742062616c616e63650000006044820152606401610445565b6000826001600160a01b03168260405160006040518083038185875af1925050503d806000811461111c576040519150601f19603f3d011682016040523d82523d6000602084013e611121565b606091505b50509050806111985760405162461bcd60e51b815260206004820152603a60248201527f416464726573733a20756e61626c6520746f2073656e642076616c75652c207260448201527f6563697069656e74206d617920686176652072657665727465640000000000006064820152608401610445565b505050565b6001600160a01b0384166111c35760405162461bcd60e51b815260040161044590611c68565b336111d3818787610fe688611475565b6000848152602081815260408083206001600160a01b038a168452909152902054838110156112145760405162461bcd60e51b815260040161044590611cad565b6000858152602081815260408083206001600160a01b038b8116855292528083208785039055908816825281208054869290611251908490611d50565b909155505060408051868152602081018690526001600160a01b03808916928a821692918616917fc3d58168c5ae7397731d063d5bbf3d657854427343f4c083240f7aacaa2d0f62910160405180910390a46112b18288888888886114ce565b50505050505050565b60006001600160e01b03198216636cdb3d1360e11b14806112eb57506001600160e01b031982166303a24d0760e21b145b8061047f57506301ffc9a760e01b6001600160e01b031983161461047f565b6001600160a01b0384163b15610e225760405163bc197c8160e01b81526001600160a01b0385169063bc197c819061134e9089908990889088908890600401611ae4565b602060405180830381600087803b15801561136857600080fd5b505af1925050508015611398575060408051601f3d908101601f19168201909252611395918101906119dd565b60015b611445576113a4611e6d565b806308c379a014156113de57506113b9611e85565b806113c457506113e0565b8060405162461bcd60e51b81526004016104459190611bc8565b505b60405162461bcd60e51b815260206004820152603460248201527f455243313135353a207472616e7366657220746f206e6f6e20455243313135356044820152732932b1b2b4bb32b91034b6b83632b6b2b73a32b960611b6064820152608401610445565b6001600160e01b0319811663bc197c8160e01b146112b15760405162461bcd60e51b815260040161044590611c20565b604080516001808252818301909252606091600091906020808301908036833701905050905082816000815181106114bd57634e487b7160e01b600052603260045260246000fd5b602090810291909101015292915050565b6001600160a01b0384163b15610e225760405163f23a6e6160e01b81526001600160a01b0385169063f23a6e61906115129089908990889088908890600401611b42565b602060405180830381600087803b15801561152c57600080fd5b505af192505050801561155c575060408051601f3d908101601f19168201909252611559918101906119dd565b60015b611568576113a4611e6d565b6001600160e01b0319811663f23a6e6160e01b146112b15760405162461bcd60e51b815260040161044590611c20565b8280546115a490611dbe565b90600052602060002090601f0160209004810192826115c6576000855561160c565b82601f106115df57805160ff191683800117855561160c565b8280016001018555821561160c579182015b8281111561160c5782518255916020019190600101906115f1565b5061161892915061161c565b5090565b5b80821115611618576000815560010161161d565b600067ffffffffffffffff83111561164b5761164b611e57565b604051611662601f8501601f191660200182611df9565b80915083815284848401111561167757600080fd5b83836020830137600060208583010152509392505050565b80356001600160a01b03811681146116a657600080fd5b919050565b600082601f8301126116bb578081fd5b813560206116c882611d2c565b6040516116d58282611df9565b8381528281019150858301600585901b870184018810156116f4578586fd5b855b85811015611712578135845292840192908401906001016116f6565b5090979650505050505050565b600082601f83011261172f578081fd5b610bf983833560208501611631565b60006020828403121561174f578081fd5b610bf98261168f565b6000806040838503121561176a578081fd5b6117738361168f565b91506117816020840161168f565b90509250929050565b600080600080600060a086880312156117a1578081fd5b6117aa8661168f565b94506117b86020870161168f565b9350604086013567ffffffffffffffff808211156117d4578283fd5b6117e089838a016116ab565b945060608801359150808211156117f5578283fd5b61180189838a016116ab565b93506080880135915080821115611816578283fd5b506118238882890161171f565b9150509295509295909350565b600080600080600060a08688031215611847578081fd5b6118508661168f565b945061185e6020870161168f565b93506040860135925060608601359150608086013567ffffffffffffffff811115611887578182fd5b6118238882890161171f565b600080604083850312156118a5578182fd5b6118ae8361168f565b9150602083013580151581146118c2578182fd5b809150509250929050565b600080604083850312156118df578182fd5b6118e88361168f565b946020939093013593505050565b60008060408385031215611908578182fd5b823567ffffffffffffffff8082111561191f578384fd5b818501915085601f830112611932578384fd5b8135602061193f82611d2c565b60405161194c8282611df9565b8381528281019150858301600585901b870184018b101561196b578889fd5b8896505b84871015611994576119808161168f565b83526001969096019591830191830161196f565b50965050860135925050808211156119aa578283fd5b506119b7858286016116ab565b9150509250929050565b6000602082840312156119d2578081fd5b8135610bf981611f0f565b6000602082840312156119ee578081fd5b8151610bf981611f0f565b600060208284031215611a0a578081fd5b813567ffffffffffffffff811115611a20578182fd5b8201601f81018413611a30578182fd5b611a3f84823560208401611631565b949350505050565b600060208284031215611a58578081fd5b5035919050565b6000815180845260208085019450808401835b83811015611a8e57815187529582019590820190600101611a72565b509495945050505050565b60008151808452815b81811015611abe57602081850181015186830182015201611aa2565b81811115611acf5782602083870101525b50601f01601f19169290920160200192915050565b6001600160a01b0386811682528516602082015260a060408201819052600090611b1090830186611a5f565b8281036060840152611b228186611a5f565b90508281036080840152611b368185611a99565b98975050505050505050565b6001600160a01b03868116825285166020820152604081018490526060810183905260a060808201819052600090611b7c90830184611a99565b979650505050505050565b602081526000610bf96020830184611a5f565b604081526000611bad6040830185611a5f565b8281036020840152611bbf8185611a5f565b95945050505050565b602081526000610bf96020830184611a99565b60c081526000611bee60c0830189611a99565b6001600160a01b039790971660208301525060408101949094526060840192909252608083015260a090910152919050565b60208082526028908201527f455243313135353a204552433131353552656365697665722072656a656374656040820152676420746f6b656e7360c01b606082015260800190565b60208082526025908201527f455243313135353a207472616e7366657220746f20746865207a65726f206164604082015264647265737360d81b606082015260800190565b6020808252602a908201527f455243313135353a20696e73756666696369656e742062616c616e636520666f60408201526939103a3930b739b332b960b11b606082015260800190565b6020808252818101527f4f776e61626c653a2063616c6c6572206973206e6f7420746865206f776e6572604082015260600190565b600067ffffffffffffffff821115611d4657611d46611e57565b5060051b60200190565b60008219821115611d6357611d63611e41565b500190565b600082611d8357634e487b7160e01b81526012600452602481fd5b500490565b6000816000190483118215151615611da257611da2611e41565b500290565b600082821015611db957611db9611e41565b500390565b600181811c90821680611dd257607f821691505b60208210811415611df357634e487b7160e01b600052602260045260246000fd5b50919050565b601f8201601f1916810167ffffffffffffffff81118282101715611e1f57611e1f611e57565b6040525050565b6000600019821415611e3a57611e3a611e41565b5060010190565b634e487b7160e01b600052601160045260246000fd5b634e487b7160e01b600052604160045260246000fd5b600060033d1115611e8257600481823e5160e01c5b90565b600060443d1015611e935790565b6040516003193d81016004833e81513d67ffffffffffffffff8160248401118184111715611ec357505050505090565b8285019150815181811115611edb5750505050505090565b843d8701016020828501011115611ef55750505050505090565b611f0460208286010187611df9565b509095945050505050565b6001600160e01b031981168114610bea57600080fdfea264697066735822122023a42a4fedc3e5696a3835386e9d2958e66e00a2d5d836a3d735aef9a583681964736f6c63430008040033a2646970667358221220a57bd45312b3f7d1f8a392175dfaf08c463fe4f8966aa5f455254f2826a947c364736f6c63430008040033",
  "linkReferences": {},
  "deployedLinkReferences": {}
}